:0400000023EF09F0F1
:1010000000000040001400540050494353696D2E05
:101010006A73203A29005343524F4C4C207269673F
:1010200068740053686F772074696D6520210053E0
:1010300043524F4C4C206C656674004E6F204355F4
:1010400052534F52004E6F20424C494E4B004F4E70
:101050002F4F46460000000E956E95CF83FF000E81
:10106000846E010E966EC6EC08F0090E056E100E29
:10107000066E41EC09F0010E036E030EF0EC08F071
:10108000230E036E100E046E0EEC09F0490E0D6E69
:10109000230EE82EFED70D2EFCD700F03B0E056E7A
:1010A000100E066E41EC09F068EC09F0210E0D6E91
:1010B000760EE82EFED70D2EFCD700D07AEC09F084
:1010C000450E056E100E066E41EC09F06EEC09F04F
:1010D000210E0D6E760EE82EFED70D2EFCD700D019
:1010E00080EC09F04E0E056E100E066E41EC09F014
:1010F000000E0E6E030E0E6401D016D074EC09F0D3
:10110000110E0D6E3A0EE82EFED70D2EFCD700D034
:1011100062EC09F0110E0D6E3A0EE82EFED70D2E80
:10112000FCD700D00E2AE6D774EC09F0160E056E37
:10113000100E066E41EC09F0000E0F6E090E0F64E2
:1011400001D00CD0090E0D6E1C0EE82EFED70D2E10
:10115000FCD700D086EC09F00F2AF0D72F0E056ED1
:10116000100E066E41EC09F0000E106E090E1064B0
:1011700001D07BD7090E0D6E1C0EE82EFED70D2E6A
:10118000FCD700D08AEC09F0102AF0D7A60EE82E82
:10119000FED700D084948482300E5AEC09F0140EED
:1011A000E82EFED700D0300E5AEC09F0040EE82EDF
:1011B000FED7300E5AEC09F0380E5AEC09F0080E42
:1011C0005AEC09F0010E5AEC09F0080EE82EFED791
:1011D00000F00F0E5AEC09F0060E5AEC09F012005E
:1011E0000C6E010EF66E20EE04F0070E0900F5CF2E
:1011F000DEFFE806FBE2010E036402D0010E036E7F
:101200000350020D040EF324D96E000EF420DA6EA2
:10121000DF500C2480095AEC09F012000AD003C0F8
:10122000F6FF04C0F7FF0800F5504AEC09F0034A46
:10123000042A03C0F6FF04C0F7FF0800F5500009B8
:10124000D8B41200ECD7240EF66E130EF76E000E13
:10125000F86E0900F5CF11F00900F5CF12F0000E7D
:10126000F86E100EF76E00012BEF08F00C0EE82E52
:10127000FED700F084920C0EE82EFED700F0848298
:10128000120052EC09F005C003F006C004F00EECA9
:1012900009F01200026E02508EEC09F0848436ECE4
:1012A00009F01200010E5AEC09F0080EE82EFED7E4
:1012B00000F01200026E02508EEC09F0849436ECBD
:1012C00009F012001194115008095AEC09F01200AB
:1012D0001192115008095AEC09F0120011901150A6
:1012E00008095AEC09F012001184115008095AEC4F
:1012F00009F012001182115008095AEC09F012008D
:101300001180115008095AEC09F012001C0E5AEC19
:1013100009F01200180E5AEC09F01200016E01C01B
:0613200083FF120007022A
:020000040030CA
:0E000000FF06181EFF8180FF0FC00FE00F40AB
:00000001FF
