:04000000BEEF7EF0E1
:10FD5E0001000000000E926E92CF80FF180E946E7E
:10FD6E0094CF82FF9BEC7FF02DEC7FF0FBD75E0EE5
:10FD7E00F66EFD0EF76E000EF86E00EE20F010EE31
:10FD8E0004F00900F5CFEEFFE550E150FAE100EE88
:10FD9E0018F0080EEE6AE806FDE1000EF86E00019E
:10FDAE00B1EF7EF020C001F021C002F022C003F0BE
:10FDBE0023C004F06D0E056E4E0E066EC60E076E57
:10FDCE00410E086E02EC7FF001C020F002C021F05F
:10FDDE0003C022F004C023F0390E2026300E21225B
:10FDEE00000E2222000E2322FF0E22140D6E7F0E15
:10FDFE0023140E6E1200000E096E000E0A6E000E17
:10FE0E000B6E000E0C6E01A008D005500926065090
:10FE1E000A2207500B2208500C22D89005360636BF
:10FE2E0007360836D89004320332023201320150BE
:10FE3E00021003100410D8A4E6D709C001F00AC0BE
:10FE4E0002F00BC003F00CC004F0120025D01C50C1
:10FE5E00D8A402D0800E05D0200E1C18D8A403D032
:10FE6E00040E1C6E02D0D8901C321C50D8B402D096
:10FE7E00809E01D0808E825094141C10826E000ED3
:10FE8E001D6EEF0E1D6401D0E2D7000E196E1D0E11
:10FE9E00186E12001D2AF5D718C001F019C002F015
:10FEAE000250000AD8A412000150000AD8B4CFD7CD
:10FEBE001D0AD8A41200EED7000E146E10AE06D096
:10FECE000F6C101ED8B0102A010E146E12AE04D094
:10FEDE00116C121ED8B0122A11501210D8B418D0AC
:10FEEE00010E136E04D0D89011361236132A12AEAC
:10FEFE00FAD711500F5C12501058D8A004D01150E0
:10FF0E000F5E1250105AD89012321132132EF1D7B2
:10FF1E001450D8B404D00F6C101ED8B0102A0FC0D5
:10FF2E000FF010C010F0120051D01E50D8A403D004
:10FF3E00010E1E6E02D0D8901E368050800B1E1001
:10FF4E00806E000E1F6EEF0E1F6401D007D0000EE4
:10FF5E001B6E170E1A6E12001F2AF5D7400E1E18B2
:10FF6E00D8A4E3D7070E1E6E2DD0D9EC7EF00DC0AF
:10FF7E000FF00EC010F0000E126E070E116E63EC35
:10FF8E007FF0010E156E0F2A02D0D89015360F2E67
:10FF9E00FCD71550176E80507F0B1718D8B4E5D7C5
:10FFAE008050800B1710806E000E1F6EEF0E1F64B8
:10FFBE0001D007D0000E1B6E230E1A6E12001F2AE0
:10FFCE00F5D71E061E50D8B4B0D7CFD71AC015F02D
:10FFDE001BC016F01650000AD8A412001550000AC5
:10FFEE00D8B4A3D7170AD8B4B7D7340AD8A41200F6
:02FFFE00E6D744
:020000040030CA
:0E000000FF06181EFF8180FF0FC00FE00F40AB
:00000001FF
