:100000008A11FD2F8A11972F8A11992F8A119B2F00
:100010008A119D2F8A119F2F8A11A12F8A11A32F38
:100020008A11A52F8A11A72F8A11A92F8A11AB2F08
:100030008A11AD2F8A11AF2F8A11B12F8A11B32FD8
:100040008A11B52F00308A000408840A8207003420
:020050001E345C
:100F2A00F000B92FEE30080028300800CD30080054
:100F3A006D3008002B30080067300800E7300800E1
:100F4A002C300800EF3008006F300800AF3008007E
:100F5A00E3300800C6300800E9300800C73008004E
:100F6A00873008000030080070088400103004023E
:100F7A000318B72F00308A000310040D023E8200C6
:100F8A000800F401F3018316031386018312031385
:100F9A008601013084008A1122208A11F100050895
:100FAA007105F2007208F500730875060319CE2F51
:100FBA007508F1007108F3008518E52F0230E82F53
:100FCA000519EC2F0130F1007108F407F42F851987
:100FDA00F02F0130F32F051AF42F0230F4027408AF
:100FEA000F398A1195278A11831203138600CE2F8F
:060FFA0083018A11C62FDD
:02400E00FBFFB6
:00000001FF
