:040000008A11112828
:10000800FE00030EF4000408F5000A08F600831247
:1000180003137F08F7008A111A288A111328FD0193
:1000280083120313A40183018A1166280B198B1EFE
:100038005B280B112408031D30287D08F1000430CB
:100048000310F10CFF3E031D24287108F200F30190
:100058007208F800730837287D080F39F100F2019B
:100068007108F8007208F90078088A119D208A1131
:10007800F1007108FC00831203132408031D4B28A8
:100088007C08F100F2017108FA0072084F2810305C
:100098007C04FA000030FB007A0886002408031D5F
:1000A8005728013058280030F1007108A40077085B
:1000B800FF0076088A0075088400740E8300FE0E1F
:1000C8007E0E090083120313A20183160313811203
:1000D80081110114811001118B168B17860183126F
:1000E80003138601013084008A11EE208A11A000D2
:1000F80005082005A1002108A300220823060319EA
:1001080076282308A0002008A20085188D280A3028
:100118009028051994280130A0002008FD077628AA
:100128008519982801309B28051A76280A30FD027F
:100138007628F000C128EE30080028300800CD30BD
:1001480008006D3008002B30080067300800E730E1
:1001580008002C300800EF3008006F300800AF307E
:100168000800E3300800C6300800E9300800C7304E
:10017800080087300800003008007008840010303C
:1001880004020318BF2800308A000310040DCE3E75
:10019800820008008A119F288A11A1288A11A328A1
:1001A8008A11A5288A11A7288A11A9288A11AB289B
:1001B8008A11AD288A11AF288A11B1288A11B3286B
:1001C8008A11B5288A11B7288A11B9288A11BB283B
:1001D8008A11BD2800308A000408840A8207003486
:0201E8001E34C3
:02400E00FBFFB6
:00000001FF
