:02000000FE2FD1
:100F3600831603138601831203138601E12FF10141
:100F46000C3071020318E12F033071020318AF2F22
:100F5600831203130614B22F8312031306100130F3
:100F6600F0007008F107A32FF2010C30720203188B
:100F7600E12F043072020318C42F831203130614E0
:100F8600C72F8312031306100130F0007008F20712
:100F9600B82FF3010C3073020318E12F06307302E9
:100FA6000318D92F831203130614DC2F831203139D
:100FB60006100130F0007008F307CD2F851CA22F14
:100FC600051DB72F851DCC2F051AE12FF4010C3016
:100FD60074020318E12F083074020318F62F8312E7
:100FE60003130614F92F8312031306100130F000C1
:0A0FF6007008F407EA2F83019B2F17
:02400E00FBFFB6
:00000001FF
