:04000000EBEF08F02A
:10100000003132332B3435362D3738392F2A3023FF
:101010002400004000140054004B6579626F617237
:10102000643A0000010EF66E20EE04F00F0E090087
:10103000F5CFDEFFE806FBE2000E146E030E14642B
:1010400001D040D014C001F0010E026E012A02D07E
:10105000D8900236012EFCD70250FF0A816E040E92
:10106000E82EFED7000E156E030E156401D028D0B1
:1010700015C001F0800E026E000E036E012A03D02F
:10108000033403320232012EFBD7025081140009CF
:10109000D8A414D01450040D040E016E000E026E7C
:1010A000F3500126F45002221550010DF350012493
:1010B000D96EF4500220DA6EDF501200152AD4D710
:1010C000142ABCD7000E1200000E956E95CF83FF38
:1010D000000E966E96CF84FFC184C182C180F00E4F
:1010E000936E93CF81FF8EEC08F02EEC09F034EC78
:1010F00009F0190E036E100E046ED6EC08F0010E06
:10110000036E000EB8EC08F0FFEC08F0186E1850F3
:10111000D8B4FAD718501EEC09F0F6D7A60EE82E70
:10112000FED700D084948482300E26EC09F0140E91
:10113000E82EFED700D0300E26EC09F0040EE82E83
:10114000FED7300E26EC09F0380E26EC09F0080E1A
:1011500026EC09F0010E26EC09F0080EE82EFED769
:1011600000F00F0E26EC09F0060E26EC09F0120036
:101170000C6E110EF66E20EE04F0070E0900F5CF8E
:10118000DEFFE806FBE2010E036402D0010E036EEF
:101190000350020D040EF324D96E000EF420DA6E13
:1011A000DF500C24800926EC09F012000AD003C09D
:1011B000F6FF04C0F7FF0800F5501EEC09F0034AE3
:1011C000042A03C0F6FF04C0F7FF0800F550000929
:1011D000D8B41200ECD77C0EF66E120EF76E000E2D
:1011E000F86E0900F5CF19F00900F5CF1AF01B6A67
:1011F000000EF86E100EF76E000164EF08F012ECAE
:1012000008F0176E1750D8B403D017C01BF009D0E0
:101210001B50D8B406D01BC016F0000E1B6E165023
:101220001200000E12000C0EE82EFED700F0849281
:101230000C0EE82EFED700F084821200026E0250DF
:101240003AEC09F0848413EC09F01200026E0250AB
:101250003AEC09F0849413EC09F012001992195039
:10126000080926EC09F0120019901950080926EC1B
:0E12700009F01200016E01C083FF1200070298
:020000040030CA
:0E000000FF06181EFF8180FF0FC00FE00F40AB
:00000001FF
