:0400000007EF00F016
:100008003C82DEED00F0CDEF01F077D03750D8A478
:1000180003D0010E376E02D0D89037368050800B4F
:100028003710806E0A0EAFEC01F00F242E6E000E12
:1000380010202F6E000E1120306E000E1220316E2F
:1000480005D0000E356E1A0E346E1200AFEC01F0BA
:100058002E500F5C2F5010583050115831501258F4
:10006800D8A0EFD7400E3718D8A4D0D7070E376ED0
:1000780040D086EC01F01BC01DF01CC01EF0000E25
:10008800206E070E1F6E23EC01F0010E236E1D2A51
:1000980002D0D89023361D2EFCD72350256E8050D1
:1000A8007F0B2518D8B4E5D78050800B2510806EBB
:1000B8000A0EAFEC01F00F242E6E000E10202F6EEA
:1000C800000E1120306E000E1220316E05D0000E89
:1000D800356E260E346E1200AFEC01F02E500F5C18
:1000E8002F5010583050115831501258D8A0EFD70F
:1000F80037063750D8B48AD7BCD734C023F035C0B8
:1001080024F02450000AD8A412002350000AD8B4BE
:100118007DD71A0AD8B49AD73C0AD8A41200DCD7DB
:1001280039D03650D8A402D0800E05D0200E36180B
:10013800D8A403D0040E366E02D0D890363236508A
:10014800D8B402D0809E01D0808E8250941436108C
:10015800826E0A0EAFEC01F00F242A6E000E1020FA
:100168002B6E000E11202C6E000E12202D6E05D065
:10017800000E336E200E326E1200AFEC01F02A50E2
:100188000F5C2B5010582C5011582D501258D8B0C5
:10019800C8D7EED732C017F033C018F01850000A8D
:1001A800D8A412001750000AD8B4BBD7200AD8A484
:1001B8001200E3D70600FACF01F0FBCF02F0E9CF37
:1001C80003F0EACF04F0E1CF05F0E2CF06F0D9CF93
:1001D80007F0DACF08F0F3CF09F0F4CF0AF0F6CF42
:1001E8000BF0F7CF0CF0F8CF0DF0F5CF0EF0F2B41E
:1001F800F2AA07D0F294010E2626000E2722282202
:1002080029220EC0F5FF0DC0F8FF0CC0F7FF0BC088
:10021800F6FF0AC0F4FF09C0F3FF08C0DAFF07C001
:10022800D9FF06C0E2FF05C0E1FF04C0EAFF03C032
:10023800E9FF02C0FBFF01C0FAFF3C921100000E6B
:10024800226E1EAE06D01D6C1E1ED8B01E2A010ED0
:10025800226E20AE04D01F6C201ED8B0202A1F505A
:100268002010D8B418D0010E216E04D0D8901F36B3
:100278002036212A20AEFAD71F501D5C20501E5868
:10028800D8A004D01F501D5E20501E5AD89020328E
:100298001F32212EF1D72250D8B404D01D6C1E1E57
:1002A800D8B01E2A1DC01DF01EC01EF01200000E80
:1002B800176E000E186E000E196E000E1A6E0FA043
:1002C80008D013501726145018221550192216500A
:1002D8001A22D8901336143615361636D89012329C
:1002E800113210320F320F50101011101210D8A402
:1002F800E6D717C00FF018C010F019C011F01AC0D7
:1003080012F0120038C00FF039C010F03AC011F0E6
:100318003BC012F06D0E136E4E0E146EC60E156EA7
:10032800410E166E5BEC01F00FC038F010C039F0CA
:1003380011C03AF012C03BF0390E3826300E39227F
:10034800000E3A22000E3B22FF0E3A141B6E7F0E5F
:100358003B141C6E1200F2AE13D0F29E26C013F0AE
:1003680027C014F028C015F029C016F0F28E13C06B
:100378000FF014C010F015C011F016C012F01200E2
:1003880026C00FF027C010F028C011F029C012F0C5
:100398001200020EF66E040EF76E000EF86E00EEF6
:1003A80038F010EE04F00900F5CFEEFFE550E1500B
:1003B800FAE100EE26F0120EEE6AE806FDE13C9046
:1003C8003C92000EF86E0001EAEF01F0000E926E0A
:1003D80092CF80FF180E946E94CF82FFD08E000EBD
:1003E800D56ED58CD584F28AF294F184D58EF28EAE
:0E03F80009EC00F094EC00F0FBD701000000CF
:020000040030CA
:0E000000FF06181EFF8180FF0FC00FE00F40AB
:00000001FF
