:0400000002EF0CF00F
:101000000066106110511057104A105C106B1001EF
:10101000000A006400E80310270000400014005498
:1010200000253032643A253032643A25303264206B
:1010300020257300253032642F253032642F25306F
:10104000326400286E756C6C290054687572732EBA
:1010500000547565732E005765642E004672692E24
:10106000004D6F6E2E0053756E2E005361742E006E
:101070003A2800000F0E1C6E000E1D6E7CD1250E4E
:101080002518D8B404D025507BEC0CF074D1000E98
:10109000276E000E266E000E246E03D024840D4AA7
:1010A0000E2A0DC0F6FF0EC0F7FFF86A0800F550D3
:1010B000300AD8B4F3D70DC0F6FF0EC0F7FFF86AB8
:1010C0000800F55011EC0CF0D8A090D0000E276E5F
:1010D000000E266E26C001F027C002F0000E046E3E
:1010E0000A0E036EEFEC0BF001C026F002C027F0F1
:1010F000D00E176EFF0E186E0DC0F6FF0EC0F7FF74
:10110000F86A0800F550196E1A6A17501926185017
:101110001A22195026261A5027220D4A0E2A0DC0CF
:10112000F6FF0EC0F7FFF86A0800F55011EC0CF05E
:10113000D8A05CD0CFD71CC0D9FF1DC0DAFFDECF4E
:101140001EF0DDCF1FF0020E1C26000E1D221E50C9
:101150001F10D8A404D0430E1E6E100E1F6E000E7A
:10116000236E000E226E02D0224A232A22501E2411
:10117000176E23501F20186E17C0F6FF18C0F7FF18
:10118000F86A0800F5500009D8A4EED72650225C72
:1011900027502358D8B005D02250265E2350275A16
:1011A00008D0000E276E000E266E03D0200E7BECBA
:1011B0000CF02606D8A027062628F8E12728D8B460
:1011C0000CD0F4D71EC0F6FF1FC0F7FFF86A080066
:1011D000F5507BEC0CF01E4A1F2A2206D8A02306ED
:1011E0002228F0E12328D8B4C6D0ECD70DC0F6FFF2
:1011F0000EC0F7FF0D4A0E2AF86A0800F5CF25F059
:101200002550000AD8B41200640AD8B407D00D0AD9
:10121000D8B404D01A0AD8B48ED7ADD01CC0D9FF28
:101220001DC0DAFFDECF20F0DDCF21F0020E1C263C
:10123000000E1D2221AE06D0030E2412206C211EAA
:10124000D8B0212A010E256E050E2518D8B415D068
:101250002550020D0F0EF324F66E100EF420F76EDB
:10126000F86A000EF8220900F550205C0900F550DC
:101270002158D8A002D0252AE7D726502710D8B465
:1012800009D024C017F0030E1716D8B403D02606D1
:10129000D8A02706800E25BE7F0E176E2650255C2F
:1012A0002750800A1758D8B007D02550265E000E68
:1012B00025BEFF0E275A04D0000E276E000E266EA4
:1012C00024A414D024C017F0030E1716D8B403D0EA
:1012D0002D0E7BEC0CF026502710D8B41ED0300E0B
:1012E0007BEC0CF02606D8A02706F5D72650271051
:1012F000D8B40AD0200E7BEC0CF02606D8A0270626
:1013000026502710D8A4F6D724C017F0030E1716BE
:10131000D8B403D02D0E7BEC0CF025C01BF027D0E9
:101320001B50020D0F0EF324F66E100EF420F76E14
:10133000F86A000EF8220900F5CF03F00A00F5CF95
:1013400004F020C001F021C002F057EC0BF001C006
:1013500008F002C009F0000E0B6E0A0E0A6EA2EC35
:101360000BF00850300F256E25507BEC0CF01B065F
:101370001B28D8A4D5D70DC0F6FF0EC0F7FF0D4A25
:101380000E2AF86A0800F5CF25F02550D8B41200CF
:1013900076D62CEC0CF043EC0CF0000E20EC0CF0AC
:1013A000D00E64EC0CF043EC0CF0000E64EC0CF08E
:1013B00043EC0CF0010E20EC0CF0D10E64EC0CF0C0
:1013C00043EC0CF0010EC3EC0BF0DCEC0BF00D6EFB
:1013D0000E6A0BC0D9FF0CC0DAFF0DC0DEFF0EC0D5
:1013E000DDFF43EC0CF0010EC3EC0BF0DCEC0BF07A
:1013F0000D6E0E6A20EE02F00B50D9260C50DA2248
:101400000DC0DEFF0EC0DDFF43EC0CF0010EC3EC9F
:101410000BF0DCEC0BF00D6E0E6A20EE04F00B50BE
:10142000D9260C50DA220DC0DEFF0EC0DDFF43ECE2
:101430000CF0010EC3EC0BF00D6E0E6A20EE0CF0FA
:101440000B50D9260C50DA220DC0DEFF0EC0DDFF96
:1014500043EC0CF0010EC3EC0BF0DCEC0BF00D6E6A
:101460000E6A20EE06F00B50D9260C50DA220DC081
:10147000DEFF0EC0DDFF43EC0CF0010EC3EC0BF001
:10148000DCEC0BF00D6E0E6A20EE08F00B50D92646
:101490000C50DA220DC0DEFF0EC0DDFF43EC0CF075
:1014A000000EC3EC0BF0DCEC0BF00D6E0E6A20EEC0
:1014B0000AF00B50D9260C50DA220DC0DEFF0EC008
:1014C000DDFF20EE10F00B50D9260C50DA22FF0E73
:1014D000DE6EFF0EDD6E10EE0EF00B50E1260C50AE
:1014E000E222DECFE6FFDDCFE5FF76EC0CF0120066
:1014F000000E956E95CF83FF000E966E96CF84FFFB
:10150000948894862AEC0BF06AEC0CF070EC0CF0EA
:10151000010EF66E100EF76E000EF86E20EE28F03B
:101520000D0E0900F5CFDEFFE806FBE254EC0CF0EF
:10153000380E0B6E000E0C6EC9EC09F045BE08D0DB
:1015400045BE0BD0455004E1070E445CD8A005D041
:10155000700E366E100E376E0DD0D8904434D96EA2
:101560004534DA6E280ED926000EDA22DECF36F0A8
:10157000DDCF37F0210E0D6E100E0E6E3CC00FF059
:101580003DC010F03AC011F03BC012F038C013F06B
:1015900039C014F036C015F037C016F03AEC08F038
:1015A000010E036E000E80EC0BF0340E0D6E100E6B
:1015B0000E6E3EC00FF03FC010F040C011F041C0B1
:1015C00012F042C013F043C014F03AEC08F0A0D778
:1015D000000E066E04AE06D0036C041ED8B0042ABA
:1015E000010E066E02AE06D0016C021ED8B0022AB1
:1015F000010E061A000E086E000E076E035004104E
:10160000D8B41CD0010E056E04D0D8900336043631
:10161000052A04AEFAD7D890073608360350015C85
:1016200004500258D8A005D00350015E0450025A5D
:101630000780D89004320332052EEDD70650D8B477
:1016400004D0076C081ED8B0082A07C001F008C0F3
:1016500002F01200040E036E3E0EE82EFED7032E9B
:10166000FCD784948482300E5CEC0CF0680EE82E7B
:10167000FED7300E5CEC0CF0140EE82EFED700D036
:10168000300E5CEC0CF0380E5CEC0CF0080E5CECF0
:101690000CF0010E5CEC0CF0290EE82EFED700D009
:1016A0000F0E5CEC0CF0060E5CEC0CF01200000E61
:1016B000066E000E056E03500410D8B41CD0010E47
:1016C000076E04D0D89003360436072A04AEFAD742
:1016D000D890053606360350015C04500258D8A055
:1016E00005D00350015E0450025A0580D8900432A0
:1016F0000332072EEDD705C001F006C002F012003C
:101700000C6E190EF66E100EF76E000EF86E20EECF
:1017100004F0070E0900F5CFDEFFE806FBE2010E3C
:10172000036402D0010E036E0350020D040EF32475
:10173000D96E000EF420DA6EDF500C2480095CECC8
:101740000CF012000A500B10D8B418D0010E0C6E19
:1017500004D0D8900A360B360C2A0BAEFAD70A50B2
:10176000085C0B500958D8A004D00A50085E0B50F2
:10177000095AD8900B320A320C2EF1D708C008F063
:1017800009C009F01200026EC586C7A0FED7C9CFF6
:1017900003F00250D8A403D0016A012A01D0016AE3
:1017A000013A0146C5500118DF0B0118C56EC58806
:1017B000C5B8FED7035012000A6E0AC009F00F0E1A
:1017C00009160AC001F0026A000E046E100E036EC4
:1017D000E8EC0AF001500A0DF35009241200015000
:1017E0000302F3CF05F0F4CF06F001500402F350EA
:1017F000062602500302F350062605C001F006C07B
:1018000002F01200080EF66E190EF76E000EF86E5A
:101810000900F5CF4AF00900F5CF4BF0000178EF51
:101820000AF0036E000E026E3A0E036005D02F0E12
:10183000036402D0010E026E02C001F001301200FA
:10184000016E0150D8B404D0C582C5A21200FDD7E4
:10185000C580C5A01200FDD73F0EC716000EC66E8C
:10186000000EC56EC686C78E2A0EC86EC68A1200C6
:101870003E0EE82EFED700F084923E0EE82EFED7F4
:1018800000F084821200C5CF01F01F0E0116D8A40B
:10189000FAD7C7A41200F7D7026E025080EC0CF002
:1018A000848438EC0CF01200020E5CEC0CF0290E73
:1018B000E82EFED700D01200026E025080EC0CF031
:1018C000849438EC0CF01200016E01C0C9FFC7A06F
:1018D0001200FDD74B924B5008095CEC0CF0120043
:1018E0004B904B5008095CEC0CF01200C584C5B459
:1018F000FED7C69A1200036E03504CEC0CF0120097
:0A190000016E01C083FF1200020710
:020000040030CA
:0E000000FF06181EFF8180FF0FC00FE00F40AB
:00000001FF
