:0400000002EF0CF00F
:101000000066106110511057104A105C106B1001EF
:10101000000A006400E80310270000400014005498
:1010200000253032643A253032643A25303264206B
:1010300020257300253032642F253032642F25306F
:10104000326400286E756C6C290054687572732EBA
:1010500000547565732E005765642E004672692E24
:10106000004D6F6E2E0053756E2E005361742E006E
:101070003A280000110E1E6E000E1F6E7CD1250E48
:101080002718D8B404D027507BEC0CF074D1000E94
:10109000296E000E286E000E266E03D026840F4A9D
:1010A000102A0FC0F6FF10C0F7FFF86A0800F550CD
:1010B000300AD8B4F3D70FC0F6FF10C0F7FFF86AB4
:1010C0000800F55011EC0CF0D8A090D0000E296E5D
:1010D000000E286E28C009F029C00AF0000E0C6E20
:1010E0000A0E0B6EEFEC0BF009C028F00AC029F0D5
:1010F000D00E196EFF0E1A6E0FC0F6FF10C0F7FF6C
:10110000F86A0800F5501B6E1C6A19501B261A500D
:101110001C221B5028261C5029220F4A102A0FC0BF
:10112000F6FF10C0F7FFF86A0800F55011EC0CF05C
:10113000D8A05CD0CFD71EC0D9FF1FC0DAFFDECF4A
:1011400020F0DDCF21F0020E1E26000E1F222050BF
:101150002110D8A404D0430E206E100E216E000E74
:10116000256E000E246E02D0244A252A2450202405
:10117000196E255021201A6E19C0F6FF1AC0F7FF0C
:10118000F86A0800F5500009D8A4EED72850245C6E
:1011900029502558D8B005D02450285E2550295A0A
:1011A00008D0000E296E000E286E03D0200E7BECB6
:1011B0000CF02806D8A029062828F8E12928D8B458
:1011C0000CD0F4D720C0F6FF21C0F7FFF86A080062
:1011D000F5507BEC0CF0204A212A2406D8A02506E5
:1011E0002428F0E12528D8B4C6D0ECD70FC0F6FFEC
:1011F00010C0F7FF0F4A102AF86A0800F5CF27F051
:101200002750000AD8B41200640AD8B407D00D0AD7
:10121000D8B404D01A0AD8B48ED7ADD01EC0D9FF26
:101220001FC0DAFFDECF22F0DDCF23F0020E1E2634
:10123000000E1F2223AE06D0030E2612226C231EA0
:10124000D8B0232A010E276E050E2718D8B415D062
:101250002750020D0F0EF324F66E100EF420F76ED9
:10126000F86A000EF8220900F550225C0900F550DA
:101270002358D8A002D0272AE7D728502910D8B45D
:1012800009D026C019F0030E1916D8B403D02806C9
:10129000D8A02906800E27BE7F0E196E2850275C25
:1012A0002950800A1958D8B007D02750285E000E60
:1012B00027BEFF0E295A04D0000E296E000E286E9C
:1012C00026A414D026C019F0030E1916D8B403D0E2
:1012D0002D0E7BEC0CF028502910D8B41ED0300E07
:1012E0007BEC0CF02806D8A02906F5D72850291049
:1012F000D8B40AD0200E7BEC0CF02806D8A0290622
:1013000028502910D8A4F6D726C019F0030E1916B4
:10131000D8B403D02D0E7BEC0CF027C01DF027D0E5
:101320001D50020D0F0EF324F66E100EF420F76E12
:10133000F86A000EF8220900F5CF03F00A00F5CF95
:1013400004F022C001F023C002F04BEC0BF001C00E
:1013500008F002C009F0000E0B6E0A0E0A6E96EC41
:101360000BF00850300F276E27507BEC0CF01D0659
:101370001D28D8A4D5D70FC0F6FF10C0F7FF0F4A1D
:10138000102AF86A0800F5CF27F02750D8B41200C9
:1013900076D62CEC0CF043EC0CF0000E20EC0CF0AC
:1013A000D00E64EC0CF043EC0CF0000E64EC0CF08E
:1013B00043EC0CF0010E20EC0CF0D10E64EC0CF0C0
:1013C00043EC0CF0010ED6EC0BF0B7EC0BF013C0B5
:1013D000D9FF14C0DAFF0FC0DEFF10C0DDFF43EC01
:1013E0000CF0010ED6EC0BF0B7EC0BF020EE02F097
:1013F0001350D9261450DA220FC0DEFF10C0DDFFD3
:1014000043EC0CF0010ED6EC0BF0B7EC0BF020EE39
:1014100004F01350D9261450DA220FC0DEFF10C09A
:10142000DDFF43EC0CF0010ED6EC0BF0156E166AE6
:1014300020EE0CF01350D9261450DA2215C0DEFF2E
:1014400016C0DDFF43EC0CF0010ED6EC0BF0B7EC50
:101450000BF020EE06F01350D9261450DA220FC0FC
:10146000DEFF10C0DDFF43EC0CF0010ED6EC0BF0FC
:10147000B7EC0BF020EE08F01350D9261450DA2206
:101480000FC0DEFF10C0DDFF43EC0CF0000ED6EC09
:101490000BF0B7EC0BF020EE0AF01350D9261450E5
:1014A000DA220FC0DEFF10C0DDFF20EE10F0135077
:1014B000D9261450DA22FF0EDE6EFF0EDD6E10EE1E
:1014C0000EF01350E1261450E222DECFE6FFDDCF0E
:1014D000E5FF76EC0CF01200000E956E95CF83FFC1
:1014E000000E966E96CF84FF948894861EEC0BF0C7
:1014F0006AEC0CF070EC0CF0010EF66E100EF76E4C
:10150000000EF86E20EE2AF00D0E0900F5CFDEFF7A
:10151000E806FBE254EC0CF03A0E136E000E146E6B
:10152000C9EC09F047BE08D047BE0BD0475004E1D4
:10153000070E465CD8A005D0700E386E100E396EBE
:101540000DD0D8904634D96E4734DA6E2A0ED9269B
:10155000000EDA22DECF38F0DDCF39F0210E0F6E2B
:10156000100E106E3EC011F03FC012F03CC013F0E0
:101570003DC014F03AC015F03BC016F038C017F06B
:1015800039C018F03AEC08F0010E036E000E74EC4E
:101590000BF0340E0F6E100E106E40C011F041C0F3
:1015A00012F042C013F043C014F044C015F045C01F
:1015B00016F03AEC08F0A0D7000E066E04AE06D086
:1015C000036C041ED8B0042A010E066E02AE06D0CB
:1015D000016C021ED8B0022A010E061A000E086E17
:1015E000000E076E03500410D8B41CD0010E056E17
:1015F00004D0D89003360436052A04AEFAD7D89022
:10160000073608360350015C04500258D8A005D0B4
:101610000350015E0450025A0780D890043203320E
:10162000052EEDD70650D8B404D0076C081ED8B0EC
:10163000082A07C001F008C002F01200040E036E71
:101640003E0EE82EFED7032EFCD784948482300E03
:101650005CEC0CF0680EE82EFED7300E5CEC0CF063
:10166000140EE82EFED700D0300E5CEC0CF0380ED5
:101670005CEC0CF0080E5CEC0CF0010E5CEC0CF079
:10168000290EE82EFED700D00F0E5CEC0CF0060EF3
:101690005CEC0CF01200000E066E000E056E03509E
:1016A0000410D8B41CD0010E076E04D0D8900336B5
:1016B0000436072A04AEFAD7D8900536063603500A
:1016C000015C04500258D8A005D00350015E0450BC
:1016D000025A0580D89004320332072EEDD705C098
:1016E00001F006C002F012000C6E190EF66E100E1C
:1016F000F76E000EF86E20EE04F0070E0900F5CF2D
:10170000DEFFE806FBE2010E036402D0010E036E69
:101710000350020D040EF324D96E000EF420DA6E8D
:10172000DF500C2480095CEC0CF012000A500B1006
:10173000D8B418D0010E0C6E04D0D8900A360B36EF
:101740000C2A0BAEFAD70A50085C0B500958D8A0E7
:1017500004D00A50085E0B50095AD8900B320A3256
:101760000C2EF1D708C008F009C009F01200126E63
:1017700012C011F00F0E1116000E046E100E036E43
:1017800012C001F0026ADCEC0AF001C009F002C0EC
:101790000AF0000E0C6E0A0E0B6EEFEC0BF01150FF
:1017A00009240F6E000E0A20106E1200026EC5860C
:1017B000C7A0FED7C9CF03F00250D8A403D0016A56
:1017C000012A01D0016A013A0146C5500118DF0B18
:1017D0000118C56EC588C5B8FED703501200095060
:1017E0000B02F3CF0DF0F4CF0EF009500C02F350C2
:1017F0000E260A500B02F3500E260DC009F00EC043
:101800000AF01200080EF66E190EF76E000EF86E52
:101810000900F5CF4CF00900F5CF4DF000016CEF59
:101820000AF0036E000E026E3A0E036005D02F0E12
:10183000036402D0010E026E02C001F001301200FA
:10184000016E0150D8B404D0C582C5A21200FDD7E4
:10185000C580C5A01200FDD73F0EC716000EC66E8C
:10186000000EC56EC686C78E2A0EC86EC68A1200C6
:101870003E0EE82EFED700F084923E0EE82EFED7F4
:1018800000F084821200C5CF01F01F0E0116D8A40B
:10189000FAD7C7A41200F7D7026E025080EC0CF002
:1018A000848438EC0CF01200020E5CEC0CF0290E73
:1018B000E82EFED700D01200026E025080EC0CF031
:1018C000849438EC0CF01200016E01C0C9FFC7A06F
:1018D0001200FDD74C924C5008095CEC0CF0120041
:1018E0004C904C5008095CEC0CF01200C584C5B457
:1018F000FED7C69A1200036E03504CEC0CF0120097
:0A190000016E01C083FF1200070210
:020000040030CA
:0E000000FF06181EFF8180FF0FC00FE00F40AB
:00000001FF
