:040000008A11112828
:10000800FE00030EF4000408F5000A08F600831247
:1000180003137F08F7008A1118288A111328FA0198
:10002800FB0183018A115B280B198B1E50280B11C9
:1000380086017A08031D2F287B08F100043003107D
:10004800F10CFF3E031D23287108F200F30172082A
:10005800F800730836287B080F39F100F20171089F
:10006800F8007208F90078088A118E208A11831224
:10007800031386007A1C44288312031306164728A4
:100088008312031306127A08031D4C2801304D28E9
:100098000030F1007108FA007708FF0076088A003E
:1000A80075088400740E8300FE0E7E0E090083120C
:1000B8000313A2018316031381128B168B17860173
:1000C800831203138601013084008A11DF208A110C
:1000D800A00005082005A1002108A3002208230686
:1000E800031967282308A0002008A20085187E2885
:1000F8000A308128051985280130A0002008FB074F
:1001080067288519892801308C28051A67280A303C
:10011800FB026728F000B228EE30080028300800FB
:10012800CD3008006D3008002B300800673008001B
:10013800E73008002C300800EF3008006F30080066
:10014800AF300800E3300800C6300800E930080086
:10015800C7300800873008000030080070088400A5
:10016800103004020318B02800308A000310040D70
:10017800BF3E820008008A1190288A1192288A11AD
:1001880094288A1196288A1198288A119A288A11FF
:100198009C288A119E288A11A0288A11A2288A11CF
:1001A800A4288A11A6288A11A8288A11AA288A119F
:1001B800AC288A11AE2800308A000408840A820715
:0401C80000341E34AD
:02400E00FBFFB6
:00000001FF
