:040000008A11112828
:10000800FE00030EF4000408F5000A08F600831247
:1000180003137F08F7008A111A288A111328FD0193
:1000280083120313A20183018A1166280B198B1E00
:100038005B280B112208031D30287D08F1000430CD
:100048000310F10CFF3E031D24287108F200F30190
:100058007208F800730837287D080F39F100F2019B
:100068007108F8007208F90078088A119C208A1132
:10007800F1007108FC00831203132208031D4B28AA
:100088007C08F100F2017108FA0072084F2810305C
:100098007C04FA000030FB007A0886002208031D61
:1000A8005728013058280030F1007108A20077085D
:1000B800FF0076088A0075088400740E8300FE0E1F
:1000C8007E0E0900831603130115011D6F28831680
:1000D800031381147228831603138110811C782856
:1000E8008316031301147B2883160313011081154B
:1000F80083120313030886008316031385018312F2
:100108000313850183160313860183120313051055
:100118004D30A0000130A1000130A0020030031CC6
:10012800A103A10220082104031D902805149B287F
:10013800F000C028EE30080028300800CD30080054
:100148006D3008002B30080067300800E7300800E1
:100158002C300800EF3008006F300800AF3008007E
:10016800E3300800C6300800E9300800C73008004E
:10017800873008000030080070088400103004023E
:100188000318BE2800308A000310040DCD3E8200FB
:1001980008008A119E288A11A0288A11A2288A118B
:1001A800A4288A11A6288A11A8288A11AA288A119F
:1001B800AC288A11AE288A11B0288A11B2288A116F
:1001C800B4288A11B6288A11B8288A11BA288A113F
:0201D800BC2841
:02400E00FFFFB2
:00000001FF
