:04000000C9EF24F030
:10100000000000803F000020410000C84200007A3C
:101010004400401C460050C3470024744980961881
:101020004B20BCBE4C286B6E4EF9021550EC78ADCF
:1010300060CAF249710000803FCDCCCC3D0AD72375
:101040003C6F12833A17B7D138ACC52737BD378606
:101050003595BFD63377CC2B325F708930FFE6DB16
:101060002E08E53C1E6042A20D010000000A0000AF
:101070000064000000E803000010270000A08601C3
:101080000040420F008096980000E1F50500CA9AE2
:101090003B3132332B3435362D3738392F2A302334
:1010A00024000040001400540068656C703A20373A
:1010B00020342032202B202A006572726F72203A71
:1010C0002800286E756C6C2900252D31367300259B
:1010D0003136670025730000730E0001BC6F000EEF
:1010E0000001BD6F8DEF11F0250E0001D619D8B4A7
:1010F00006D00001D65141EC25F08DEF11F0000E25
:101100000001CB6F000ECA6F000E0001CD6F000E04
:10111000CC6F04D00001CC87714A722A71C0F6FFEF
:1011200072C0F7FFF86A0800F5502D0AD8B4F2D75C
:1011300071C0F6FF72C0F7FFF86A0800F550F1ECD5
:1011400024F0D8A0DCD0000E0001CB6F000ECA6FD7
:10115000CAC001F0CBC002F0000E046E0A0E036E8E
:10116000DEEC24F001C0CAF002C0CBF0D00E776EE6
:10117000FF0E786E71C0F6FF72C0F7FFF86A0800C4
:10118000F550796E7A6A7750792678507A227950BC
:101190000001CA277A500001CB23714A722A71C01C
:1011A000F6FF72C0F7FFF86A0800F550F1EC24F082
:1011B000D8A0A5D0CDD70001CD83B8D0BCC0D9FF71
:1011C000BDC0DAFFDECFBEF0DDCFBFF0020E000102
:1011D000BC27000EBD230001BE510001BF11D8A4E1
:1011E00006D0C20E0001BE6F100E0001BF6F000ED0
:1011F0000001C16F000EC06F03D00001C04BC12BB6
:101200000001C0510001BE25776E0001C1510001EF
:10121000BF21786E77C0F6FF78C0F7FF000EF86E3A
:101220000F0EF76403D00800F55005D0F6CFE1FFAC
:10123000F7CFE2FFE7500009D8A4DFD70001CA5179
:101240000001C05D0001CB510001C159D8B009D0E7
:101250000001C0510001CA5F0001C1510001CB5B18
:1012600005D0000E0001CB6F000ECA6F0001CCA7A5
:1012700004D025D0200E41EC25F00001CA07D8A0EB
:10128000CB070001CA29F6E10001CB29D8B417D059
:10129000F1D7BEC0F6FFBFC0F7FF000EF86E0F0E0D
:1012A000F76403D00800F55005D0F6CFE1FFF7CF83
:1012B000E2FFE75041EC25F00001BE4BBF2B0001DF
:1012C000C007D8A0C1070001C029E3E10001C1297E
:1012D000D8A4DFD70001CCB705D08DEF11F0200ED8
:1012E00041EC25F00001CA07D8A0CB070001CA29AC
:1012F000F6E10001CB29D8B48DEF11F0F0D771C021
:10130000F6FF72C0F7FF714A722AF86A0800F5CF3B
:10131000D6F00001D651000AD8B41200670AD8B43A
:101320004AD7140AD8B44AD78DEF11F0070E00013E
:10133000CD15D8B419EF11F0000E0001CF6F060ED5
:10134000CE6FBCC0D9FFBDC0DAFFDECFD2F0DECF9A
:10135000D3F0DECFD4F0DECFD5F0040E0001BC27F1
:10136000000EBD230001D5AF15D0D2C027F0D3C0E9
:1013700028F0D4C029F0D5C02AF09BEC24F027C077
:10138000D2F028C0D3F029C0D4F02AC0D5F0030E83
:101390000001CC13000E0001D16F000ED06F0001D0
:1013A000D2510001D3110001D4110001D511D8B4DC
:1013B00088D00001D435D535820F0001D06F0001EF
:1013C000D16BFF0ED1230001D007D8A0D107D0C028
:1013D00001F0D1C002F0000E046E030E036EDEECCD
:1013E00024F001C0D0F002C0D1F0D0C007F0D1C0CD
:1013F00008F0000E0A6E0A0E096EC8EC22F007C053
:10140000D0F008C0D1F00001D1AF04D00001D00766
:10141000D8A0D1070001D051000844EC14F044C01A
:10142000C2F045C0C3F046C0C4F047C0C5F0C2C05A
:101430002BF0C3C02CF0C4C02DF0C5C02EF0D2C01C
:101440002FF0D3C030F0D4C031F0D5C032F074ECFE
:1014500016F02BC0C2F02CC0C3F02DC0C4F02EC0BB
:10146000C5F0C2C065F0C3C066F0C4C067F0C5C0B7
:1014700068F0000E696E000E6A6E800E6B6E3F0E95
:101480006C6EEAEC20F0D8B005D00001D007D8A0EF
:10149000D10717D0C2C065F0C3C066F0C4C067F002
:1014A000C5C068F0000E696E000E6A6E200E6B6E8D
:1014B000410E6C6EEAEC20F0D8A003D00001D04BB6
:1014C000D12B0001D1BF07D00001D15108E10001AB
:1014D000D005D8B004D0010E0001D66F02D0D0C024
:1014E000D6F00001CDA3CFD20001D1AF08D0FC0EC1
:1014F0000001D05DFF0E0001D159D8A00ED000012F
:10150000CE510001D05D0001D151800A776E0001FB
:10151000CF51800A7758D8A0B6D20001CE51000131
:10152000CF11D8B407D00001CDA304D00001CE075D
:10153000D8A0CF070001CF5105E1090E0001CE5D13
:10154000D8A004D0080E0001D66F02D0CEC0D6F0CD
:101550000001D2510001D3110001D4110001D511B5
:10156000D8B410D1D2C00FF0D3C010F0D4C011F055
:10157000D5C012F00001D65100080001D02544EC7E
:1015800014F044C013F045C014F046C015F047C035
:1015900016F01BEC1BF00FC0D2F010C0D3F011C03E
:1015A000D4F012C0D5F0D2C055F0D3C056F0D4C09C
:1015B00057F0D5C058F0D2C00FF0D3C010F0D4C04F
:1015C00011F0D5C012F003EC22F00FC019F010C0DA
:1015D0001AF011C01BF012C01CF0000E73EC1EF0CC
:1015E00019C027F01AC028F01BC029F01CC02AF02F
:1015F0009BEC24F027C051F028C052F029C053F0D2
:101600002AC054F01CEC18F051C065F052C066F0CE
:1016100053C067F054C068F0000E696E000E6A6E29
:10162000000E6B6E3F0E6C6EEAEC20F0D8A01AD064
:10163000D2C051F0D3C052F0D4C053F0D5C054F052
:10164000000E556E000E566E000E576E3F0E586E11
:101650001CEC18F051C0D2F052C0D3F053C0D4F0FB
:1016600054C0D5F0D6C077F0786A77BE7806D890A7
:1016700077367836D89077367836040E7726000E8F
:101680007822690E7724F66E100E7820F76EF86ACD
:10169000000EF822D2C00FF0D3C010F0D4C011F069
:1016A000D5C012F003EC22F00900F5500F5C0900E0
:1016B000F55010580900F55011580900F55012580E
:1016C000D8A01ED0D2C02BF0D3C02CF0D4C02DF0A7
:1016D000D5C02EF0CD0E2F6ECC0E306ECC0E316EEE
:1016E0003D0E326E74EC16F02BC0D2F02CC0D3F04D
:1016F0002DC0D4F02EC0D5F00001D04BD12B42D05C
:101700000001D651040D690EF324F66E100EF4207C
:10171000F76EF86A000EF822D2C00FF0D3C010F0B6
:10172000D4C011F0D5C012F003EC22F00900F5503E
:101730000F5C0900F55010580900F55011580900C8
:10174000F5501258D8B01ED0D2C02BF0D3C02CF018
:10175000D4C02DF0D5C02EF0000E2F6E000E306ECE
:10176000200E316E410E326E74EC16F02BC0D2F0AA
:101770002CC0D3F02DC0D4F02EC0D5F00001D0077E
:10178000D8A0D107050E0001CE25776E000E00010E
:10179000CF21786E77500001CA5F78500001CB5B93
:1017A000030E0001CC15776E000E0001CD15786E8A
:1017B00077507810D8B404D00001CA07D8A0CB075E
:1017C0000001CCA708D011D0200E41EC25F000017B
:1017D000CA07D8A0CB070001CBBF07D00001CB516F
:1017E000F3E10001CA05D8B0EFD7030E0001CC1514
:1017F000776E000E0001CD15786E77507810D8B452
:1018000003D02D0E41EC25F0D2C00FF0D3C010F064
:10181000D4C011F0D5C012F003EC22F00FC0C6F016
:1018200010C0C7F011C0C8F012C0C9F0C6C001F0A6
:10183000C7C002F0C8C003F0C9C004F00001D6510F
:10184000040D690EF324F66E100EF420F76EF86A9C
:10185000000EF8220900F5CF05F00900F5CF06F0DB
:101860000900F5CF07F00A00F5CF08F00AEC23F0E5
:101870000150300F41EC25F0C6C001F0C7C002F0A6
:10188000C8C003F0C9C004F00001D651040D690EB0
:10189000F324F66E100EF420F76EF86A000EF822AC
:1018A0000900F5CF05F00900F5CF06F00900F5CFE6
:1018B00007F00A00F5CF08F083EC23F001C0C6F072
:1018C00002C0C7F003C0C8F004C0C9F00001CE5187
:1018D0000001CF11D8B48AD02E0E41EC25F00001C2
:1018E000D6510001CE5F000E0001D6BFFF0E0001F1
:1018F000CF5B68D00001CDA315D00001C651000117
:10190000C7110001C8110001C911D8A40BD0000EE5
:101910000001D66F0001D6510001CE6FCF6BCEBF54
:10192000CF075ED0C6C001F0C7C002F0C8C003F048
:10193000C9C004F00001D651040D690EF324F66EFF
:10194000100EF420F76EF86A000EF8220900F5CFA9
:1019500005F00900F5CF06F00900F5CF07F00A0001
:10196000F5CF08F00AEC23F00150300F41EC25F0E0
:10197000C6C001F0C7C002F0C8C003F0C9C004F07F
:101980000001D651040D690EF324F66E100EF420FA
:10199000F76EF86A000EF8220900F5CF05F009008D
:1019A000F5CF06F00900F5CF07F00A00F5CF08F0F3
:1019B00083EC23F001C0C6F002C0C7F003C0C8F03A
:1019C00004C0C9F00001D6070001D629D8B408D058
:1019D00091D7300E41EC25F00001CE07D8A0CF07FB
:1019E0000001CE510001CF11D8A4F3D7650E41EC10
:1019F00025F00001D1AF09D00001D06DD11FD8B0C2
:101A0000D12B2D0E41EC25F003D02B0E41EC25F00F
:101A1000D0C007F0D1C008F0000E0A6E0A0E096EA1
:101A2000C8EC22F00750300F41EC25F0D0C001F097
:101A3000D1C002F0000E046E0A0E036E4BEC23F0D0
:101A40000150300F41EC25F00001CCA78DEF11F0D3
:101A50000001CBBF8DEF11F00001CB5105E100017A
:101A6000CA05D8A08DEF11F0200E41EC25F0000141
:101A7000CA07D8A0CB070001CA510001CB11D8B4C6
:101A80008DEF11F0F1D70001CDA31CD10001D1AF32
:101A90000ED0010E0001D025776E000E0001D1217D
:101AA000786E77500001CE5F78500001CF5BD2C0D6
:101AB0000FF0D3C010F0D4C011F0D5C012F003EC79
:101AC00022F00FC0C6F010C0C7F011C0C8F012C09D
:101AD000C9F0000E0001D66F0A0E0001D619D8B465
:101AE00021D00001D651040D690EF324F66E100EBC
:101AF000F420F76EF86A000EF8220900F550000194
:101B0000C65D0900F5500001C7590900F5500001F4
:101B1000C8590900F5500001C959D8A003D00001E7
:101B2000D62BDAD70001D6510001CE5F000E00019E
:101B3000D6BFFF0E0001CF5B0001CFBF08D0000170
:101B4000CF5123E10D0E0001CE5DD8B01ED0D2C022
:101B500051F0D3C052F0D4C053F0D5C054F00001BE
:101B6000CE5175EC1CF044C055F045C056F046C04F
:101B700057F047C058F01CEC18F051C0D2F052C0DA
:101B8000D3F053C0D4F054C0D5F00001CE5144EC92
:101B900014F044C0B8F045C0B9F046C0BAF047C030
:101BA000BBF0B8C02BF0B9C02CF0BAC02DF0BBC050
:101BB0002EF0D2C055F0D3C056F0D4C057F0D5C0E7
:101BC00058F0C6C019F0C7C01AF0C8C01BF0C9C091
:101BD0001CF0000E73EC1EF019C027F01AC028F09C
:101BE0001BC029F01CC02AF09BEC24F027C051F048
:101BF00028C052F029C053F02AC054F01CEC18F051
:101C000051C02FF052C030F053C031F054C032F008
:101C100074EC16F02BC0B8F02CC0B9F02DC0BAF09F
:101C20002EC0BBF0B8C00FF0B9C010F0BAC011F0B0
:101C3000BBC012F003EC22F00FC0C6F010C0C7F01A
:101C400011C0C8F012C0C9F01ED0C6C001F0C7C094
:101C500002F0C8C003F0C9C004F00A0E056E000E01
:101C6000066E000E076E000E086E0AEC23F001C02F
:101C7000C6F002C0C7F003C0C8F004C0C9F000013C
:101C8000CE07D8A0CF070001CE510001CF11D8B4A4
:101C900042D0C6C001F0C7C002F0C8C003F0C9C03E
:101CA00004F00A0E056E000E066E000E076E000EA2
:101CB000086E83EC23F00150021003100410D8A426
:101CC0002AD0C3D70001CFBF08D00001CF5123E1F4
:101CD0000D0E0001CE5DD8B01ED0D2C051F0D3C0E1
:101CE00052F0D4C053F0D5C054F00001CE5175EC81
:101CF0001CF044C055F045C056F046C057F047C0F0
:101D000058F01CEC18F051C0D2F052C0D3F053C0C0
:101D1000D4F054C0D5F00001D1BF08D00001D1519A
:101D20002AE10A0E0001D05DD8B025D00001D251C1
:101D30000001D3110001D4110001D511D8B467D02E
:101D4000D2C00FF0D3C010F0D4C011F0D5C012F043
:101D500003EC22F00F50101011101210D8A457D01D
:101D60000001D1BF54D00001D15105E1020E0001A4
:101D7000D05DD8A04CD0C2C065F0C3C066F0C4C06E
:101D800067F0C5C068F05F0E696E700E6A6E890EEE
:101D90006B6E400E6C6EEAEC20F0D8B003D0000100
:101DA000F70E02D00001F80ED027FF0ED12300015C
:101DB000D05144EC14F044C0C2F045C0C3F046C05A
:101DC000C4F047C0C5F0D2C001F0D3C002F0D4C007
:101DD00003F0D5C004F0C2C005F0C3C006F0C4C013
:101DE00007F0C5C008F056EC20F001C0C6F002C0F4
:101DF000C7F003C0C8F004C0C9F0000E0001D26FE4
:101E0000000ED36F000ED46F000ED56F3CD0D2C041
:101E10000FF0D3C010F0D4C011F0D5C012F003EC15
:101E200022F00FC0C6F010C0C7F011C0C8F012C039
:101E3000C9F0D2C065F0D3C066F0D4C067F0D5C099
:101E400068F0C6C019F0C7C01AF0C8C01BF0C9C0FE
:101E50001CF0000E73EC1EF019C069F01AC06AF095
:101E60001BC06BF01CC06CF0E5EC23F065C0D2F039
:101E700066C0D3F067C0D4F068C0D5F0000E000192
:101E8000D16F000ED06F010E0001D66F0A0E000157
:101E9000D619D8B421D00001D651040D690EF3240F
:101EA000F66E100EF420F76EF86A000EF8220900A4
:101EB000F5500001C65D0900F5500001C759090041
:101EC000F5500001C8590900F5500001C959D8A0C2
:101ED00003D00001D62BDAD7D6C077F0786A77BE68
:101EE00078060001CE5177260001CF5178220001FB
:101EF000D05177260001D151782277500001CA5F76
:101F000078500001CB5B0001CE510001CF11D8B455
:101F100004D00001CA07D8A0CB07030E0001CC15DE
:101F2000776E000E0001CD15786E77507810D8B41A
:101F300004D00001CA07D8A0CB070001CCA708D065
:101F400011D0200E41EC25F00001CA07D8A0CB0724
:101F50000001CBBF07D00001CB51F3E10001CA055E
:101F6000D8B0EFD7030E0001CC15776E000E00013C
:101F7000CD15786E77507810D8B44DD02D0E41EC39
:101F800025F049D0C6C001F0C7C002F0C8C003F0B8
:101F9000C9C004F00001D651040D690EF324F66E99
:101FA000100EF420F76EF86A000EF8220900F5CF43
:101FB00005F00900F5CF06F00900F5CF07F00A009B
:101FC000F5CF08F00AEC23F001C0C2F002C0C3F064
:101FD00003C0C4F004C0C5F0C2C001F0C3C002F029
:101FE000C4C003F0C5C004F00A0E056E000E066EF4
:101FF000000E076E000E086E83EC23F001C0C2F0E5
:1020000002C0C3F003C0C4F004C0C5F00001C25157
:10201000300F41EC25F00001D6070001D629D8B4D5
:1020200008D0B0D7300E41EC25F00001D007D8A081
:10203000D1070001D1BF07D00001D151F3E1000168
:10204000D005D8B0EFD70001CFBF0CD00001CF51E1
:1020500005E1090E0001CE5DD8A004D0080E0001F4
:10206000D66F02D0CEC0D6F00001D6510001CE5FAF
:10207000000E0001D6BFFF0E0001CF5B0001D6515C
:102080000001D8B403D02E0E41EC25F00001D6514A
:1020900044EC14F044C0B4F045C0B5F046C0B6F00E
:1020A00047C0B7F0D2C02FF0D3C030F0D4C031F069
:1020B000D5C032F0B4C02BF0B5C02CF0B6C02DF0B6
:1020C000B7C02EF074EC16F02BC00FF02CC010F03F
:1020D0002DC011F02EC012F003EC22F00FC0C6F09C
:1020E00010C0C7F011C0C8F012C0C9F073D0C6C08C
:1020F00001F0C7C002F0C8C003F0C9C004F000017D
:10210000D651040D690EF324F66E100EF420F76E0E
:10211000F86A000EF8220900F5CF05F00900F5CFA6
:1021200006F00900F5CF07F00A00F5CF08F00AEC39
:1021300023F001C0C2F002C0C3F003C0C4F004C069
:10214000C5F0C2C001F0C3C002F0C4C003F0C5C0F6
:1021500004F00A0E056E000E066E000E076E000EED
:10216000086E83EC23F001C0C2F002C0C3F003C0CC
:10217000C4F004C0C5F00001C251300F41EC25F09D
:10218000C6C001F0C7C002F0C8C003F0C9C004F067
:102190000001D651040D690EF324F66E100EF420E2
:1021A000F76EF86A000EF8220900F5CF05F0090075
:1021B000F5CF06F00900F5CF07F00A00F5CF08F0DB
:1021C00083EC23F001C0C6F002C0C7F003C0C8F022
:1021D00004C0C9F00001D6070001D629D8B408D040
:1021E00086D7300E41EC25F00001CE07D8A0CF07EE
:1021F0000001CE510001CF11D8A4F3D70001CCA724
:102200008CD00001CBBF89D00001CB5104E100018B
:10221000CA05D8A082D0200E41EC25F00001CA07E3
:10222000D8A0CB070001CA510001CB11D8B475D09A
:10223000F2D70001CA510001CB11D8B410D0030E5F
:102240000001CC15776E000E0001CD15786E775029
:102250007810D8B404D00001CA07D8A0CB07800EEC
:102260000001D6BF7F0E776E0001CA510001D65D16
:102270000001CB51800A7758D8B00BD00001D6515D
:102280000001CA5F000E0001D6BFFF0E0001CB5B4C
:1022900005D0000E0001CB6F000ECA6F0001CA51BD
:1022A0000001CB11D8B410D00001CCB70DD0200E56
:1022B00041EC25F00001CA07D8A0CB070001CA51A4
:1022C0000001CB11D8A4F3D7030E0001CC15776E13
:1022D000000E0001CD15786E77507810D8B403D079
:1022E0002D0E41EC25F00001CCA717D00001CBBF8B
:1022F00014D00001CB5104E10001CA05D8A00DD0D3
:10230000200E41EC25F00001CA07D8A0CB07000140
:10231000CA510001CB11D8A4F3D771C0F6FF72C027
:10232000F7FF714A722AF86A0800F5CFD6F000016B
:10233000D651D8B4120074EF08F077C0B8F078C066
:10234000B9F0000E0001B76F000EB66F77C0D9FF6D
:1023500078C0DAFFDF500001BE6F0001BE51000AF5
:10236000D8B431D0200AD8B436D00A0AD8B475D03F
:10237000010AD8B472D0060AD8B479D0030AD8B406
:10238000ACD0010AD8B469D01F0AD8B4D0D0010AA1
:10239000D8B4CDD0030AD8B4CAD0010AD8B4C7D0B3
:1023A000070AD8B4C4D0010AD8B4C1D0030AD8B43B
:1023B000BED0010AD8B4BBD00F0AD8B4B8D0010A35
:1023C000D8B4B5D004D0774A782A000E1200774AE4
:1023D000782A010E1200000E0001B76F000EB66FD2
:1023E000774A782A77C0B4F078C0B5F0B4C0D9FF86
:1023F000B5C0DAFFDF500001BE6F0001BE512A0AEE
:10240000D8B4E6D0010AD8B4E3D0060AD8B4EDD0E7
:10241000030AD8B420D1010AD8B4DAD01F0AD8B43C
:102420005DD1010AD8B45AD1030AD8B457D1010AF0
:10243000D8B454D1070AD8B451D1010AD8B44ED176
:10244000030AD8B44BD1010AD8B448D10F0AD8B482
:1024500045D1010AD8B442D1BCD7774A782AB8C04E
:10246000D9FFB9C0DAFFDF50C4EC1DF08BD1000EEC
:102470000001B76F010EB66F774A782A77C0B4F0C3
:1024800078C0B5F0B4C0D9FFB5C0DAFFDF500001A5
:10249000BE6F0001BE512E0AD8B479D11E0AD8B43D
:1024A00046D0010AD8B443D0030AD8B440D0010AB8
:1024B000D8B43DD0070AD8B43AD0010AD8B437D03E
:1024C000030AD8B434D0010AD8B431D00F0AD8B432
:1024D0002ED0010AD8B42BD0C2D7774A782A77C039
:1024E000D9FF78C0DAFFDF500001BE6F0001BE5196
:1024F000300AD8B475D1010AD8B472D1030AD8B45D
:102500006FD1010AD8B46CD1070AD8B469D1010AD5
:10251000D8B466D1030AD8B463D1010AD8B460D163
:102520000F0AD8B45DD1010AD8B45AD152D7000EDF
:102530000001B76F020EB66F774A782A77C0B4F001
:1025400078C0B5F077C0D9FF78C0DAFFDF5000015E
:10255000BE6F0001BE512E0AD8B419D11E0AD8B4DC
:10256000E6D7010AD8B4E3D7030AD8B4E0D7010A02
:10257000D8B4DDD7070AD8B4DAD7010AD8B4D7D788
:10258000030AD8B4D4D7010AD8B4D1D70F0AD8B423
:10259000CED7010AD8B4CBD7B8C065F0B9C066F0C1
:1025A00077C067F078C068F0BA0E696E000E6A6E88
:1025B000BAEC19F00009D8A4E8D0BAC065F0BBC0E5
:1025C00066F0BCC067F0BDC068F066EC24F0DAD0FD
:1025D000774A782A000120EE01F0B851D926B95186
:1025E000DA22DF50C4EC1DF0CDD0000E0001B76F31
:1025F000030EB66F774A782A77C0B4F078C0B5F08A
:10260000B4C0D9FFB5C0DAFFDF500001BE6F0001D2
:10261000BE512E0AD8B41FD01E0AD8B45FD0010A0A
:10262000D8B45CD0030AD8B459D0010AD8B456D073
:10263000070AD8B453D0010AD8B450D0030AD8B48A
:102640004DD0010AD8B44AD00F0AD8B447D0010AF5
:10265000D8B444D0BFD7774A782A77C0D9FF78C09A
:10266000DAFFDF500001BE6F0001BE51300AD8B45E
:10267000E1D0010AD8B4DED0030AD8B4DBD0010A15
:10268000D8B4D8D0070AD8B4D5D0010AD8B4D2D09B
:10269000030AD8B4CFD0010AD8B4CCD00F0AD8B42A
:1026A000C9D0010AD8B4C6D0B4C077F0B5C078F0AC
:1026B000B6C079F0B7C07AF07A50000AD8A443D0F7
:1026C0007950000AD8B485D6010AD8B4C8D6030A0E
:1026D000D8B462D7010AD8B47DD735D0000E000136
:1026E000B76F040EB66F774A782A77C0B4F078C017
:1026F000B5F077C0D9FF78C0DAFFDF500001BE6FB8
:102700000001BE512E0AD8B4A6D71E0AD8B4E6D707
:10271000010AD8B4E3D7030AD8B4E0D7010AD8B481
:10272000DDD7070AD8B4DAD7010AD8B4D7D7030A55
:10273000D8B4D4D7010AD8B4D1D70F0AD8B4CED7D9
:10274000010AD8B4CBD7010E0001B825656E000E82
:102750000001B921666E77C067F078C068F0BA0EE4
:10276000696E000E6A6EBAEC19F00009D8A40DD09B
:10277000BAC065F0BBC066F0BCC067F0BDC068F011
:1027800066EC24F00009D8B4D8D5010E1200774ABF
:10279000782A77C0D9FF78C0DAFFDF500001BE6F1A
:1027A0000001BE51300AD8B41BD0010AD8B418D0E9
:1027B000030AD8B415D0010AD8B412D0070AD8B485
:1027C0000FD0010AD8B40CD0030AD8B409D0010A3A
:1027D000D8B406D00F0AD8B403D0010AD8A464D75D
:1027E000774A782A77C0D9FF78C0DAFFDF50000136
:1027F000BE6F0001BE51300AD8B4F2D7010AD8B476
:10280000EFD7030AD8B4ECD7010AD8B4E9D7070A3E
:10281000D8B4E6D7010AD8B4E3D7030AD8B4E0D7CE
:10282000010AD8B4DDD70F0AD8B4DAD7010AD8B470
:10283000D7D7B2D6774A782A77C0D9FF78C0DAFFDF
:10284000DF500001BE6F0001BE51300AD8B4F2D78C
:10285000010AD8B4EFD7030AD8B4ECD7010AD8B428
:10286000E9D7070AD8B4E6D7010AD8B4E3D7030AF0
:10287000D8B4E0D7010AD8B4DDD70F0AD8B4DAD774
:10288000010AD8B4D7D75FD74C6E4CAE17D14C6C79
:102890004C50800A120FD8A0A1D0000E0A6E0A0E6A
:1028A000096E000E046E640E036E4C50016E026AD7
:1028B00001BE02064BEC23F001C007F002C008F095
:1028C000C8EC22F0D89007360836D890073608367C
:1028D000240E0726000E0822350E0724F66E100E71
:1028E0000820F76EF86A000EF8220900F5CF2FF0E5
:1028F0000900F5CF30F00900F5CF31F00A00F5CF2F
:1029000032F0000E0A6E640E096E4C50076E086AB3
:1029100007BE0806C8EC22F0D89007360836D890D3
:1029200007360836480E0726000E0822350E072403
:10293000F66E100E0820F76EF86A000EF8220900F5
:10294000F5CF2BF00900F5CF2CF00900F5CF2DF0D5
:102950000A00F5CF2EF074EC16F02BC048F02CC016
:1029600049F02DC04AF02EC04BF048C02BF049C0B2
:102970002CF04AC02DF04BC02EF0000E046E0A0E53
:10298000036E4C50016E026A01BE02064BEC23F04E
:10299000D89001360236D89001360236350E012421
:1029A000F66E100E0220F76EF86A000EF82209008B
:1029B000F5CF2FF00900F5CF30F00900F5CF31F059
:1029C0000A00F5CF32F074EC16F02BC044F02CC0A6
:1029D00045F02DC046F02EC047F012004C50800A42
:1029E000750FD8A053D0000E0A6E0A0E096E4C5017
:1029F000076E086A07BE0806C8EC22F0D8900736B2
:102A00000836D89007360836240E0726000E08220E
:102A1000350E0724F66E100E0820F76EF86A000EC9
:102A2000F8220900F5CF2BF00900F5CF2CF00900B2
:102A3000F5CF2DF00A00F5CF2EF0000E046E0A0E31
:102A4000036E4C50016E026A01BE02064BEC23F08D
:102A5000D89001360236D89001360236350E012460
:102A6000F66E100E0220F76EF86A000EF8220900CA
:102A7000F5CF2FF00900F5CF30F00900F5CF31F098
:102A80000A00F5CF32F074EC16F09FD74C50040DCD
:102A9000350EF324F66E100EF420F76EF86A000E71
:102AA000F8220900F5CF44F00900F5CF45F0090000
:102AB000F5CF46F00A00F5CF47F012004C50800ADF
:102AC000120FD8A0A1D0000E0A6E0A0E096E000ED9
:102AD000046E640E036E4C50016E026A01BE020663
:102AE0004BEC23F001C007F002C008F0C8EC22F064
:102AF000D89007360836D89007360836240E0726B1
:102B0000000E0822010E0724F66E100E0820F76E44
:102B1000F86A000EF8220900F5CF2FF00900F5CF72
:102B200030F00900F5CF31F00A00F5CF32F0000E99
:102B30000A6E640E096E4C50076E086A07BE0806DE
:102B4000C8EC22F0D89007360836D89007360836F9
:102B5000480E0726000E0822010E0724F66E100EFE
:102B60000820F76EF86A000EF8220900F5CF2BF066
:102B70000900F5CF2CF00900F5CF2DF00A00F5CFB4
:102B80002EF074EC16F02BC048F02CC049F02DC08C
:102B90004AF02EC04BF048C02BF049C02CF04AC080
:102BA0002DF04BC02EF0000E046E0A0E036E4C503A
:102BB000016E026A01BE02064BEC23F0D89001368A
:102BC0000236D89001360236010E0124F66E100E40
:102BD0000220F76EF86A000EF8220900F5CF2FF0F8
:102BE0000900F5CF30F00900F5CF31F00A00F5CF3C
:102BF00032F074EC16F02BC044F02CC045F02DC020
:102C000046F02EC047F012004C50800A750FD8A035
:102C100053D0000E0A6E0A0E096E4C50076E086AF9
:102C200007BE0806C8EC22F0D89007360836D890C0
:102C300007360836240E0726000E0822010E072448
:102C4000F66E100E0820F76EF86A000EF8220900E2
:102C5000F5CF2BF00900F5CF2CF00900F5CF2DF0C2
:102C60000A00F5CF2EF0000E046E0A0E036E4C50D3
:102C7000016E026A01BE02064BEC23F0D8900136C9
:102C80000236D89001360236010E0124F66E100E7F
:102C90000220F76EF86A000EF8220900F5CF2FF037
:102CA0000900F5CF30F00900F5CF31F00A00F5CF7B
:102CB00032F074EC16F09FD74C50040D010EF32443
:102CC000F66E100EF420F76EF86A000EF822090076
:102CD000F5CF44F00900F5CF45F00900F5CF46F0F7
:102CE0000A00F5CF47F012002E50800B376E2E50A1
:102CF0002E243D6E2DBE3D803D50D8B40DD03D28D4
:102D0000D8A408D0000E2B6E000E2C6E000E2D6E77
:102D1000000E2E6E2D8E08D0000E2B6E000E2C6E27
:102D2000000E2D6E000E2E6E3250800B371A325070
:102D300032243C6E31BE3C803C50D8B40DD03C288F
:102D4000D8A408D0000E2F6E000E306E000E316E2B
:102D5000000E326E318E08D0000E2F6E000E306ED7
:102D6000000E316E000E326E3C50D8B403D03D5090
:102D7000D8A409D0000E2B6E000E2C6E000E2D6E06
:102D8000000E2E6E120031502B02F3CF42F0F4CF22
:102D900043F04250386E396A3A6A3B6A43503E6E9D
:102DA0003F6A406A416A30502C02F3CF42F0F4CFC0
:102DB00043F042503826000E39223A223B2243503B
:102DC0003E26000E3F22402241222F502D02F3CFFB
:102DD00042F0F4CF43F042503826000E39223A2216
:102DE0003B2243503E26000E3F22402241223AC061
:102DF0003BF039C03AF038C039F0386A2F502C0215
:102E0000F3CF42F0F4CF43F04250382643503922FA
:102E1000000E3A22000E3B2230502B02F3CF42F03C
:102E2000F4CF43F04250382643503922000E3A2264
:102E3000000E3B223AC03BF039C03AF038C039F0BE
:102E4000386A2F502B02F3CF42F0F4CF43F04250B8
:102E5000382643503922000E3A22000E3B223150D0
:102E60002C02F3CF42F0F4CF43F042503E264350C1
:102E70003F22000E4022000E412230502D02F3CF9F
:102E800042F0F4CF43F042503E2643503F22000E22
:102E90004022000E412231502D02F3CF42F0F4CFF8
:102EA00043F04250336E4350346E356A366A35C053
:102EB00036F034C035F033C034F0336A33503E2638
:102EC00034503F22355040223650412238C033F032
:102ED00039C034F03AC035F03BC036F0190E05D099
:102EE000D8903632353234323332E82EF9D7335077
:102EF0003E2634503F2235504022365041223AC0BF
:102F00003BF039C03AF038C039F0386A3C503DC027
:102F100033F0346A3326000E3422820E3324426E9C
:102F2000FF0E3420436E0FD0D8903E363F364036E9
:102F300041363BBE3E80D890383639363A363B363D
:102F40004206D8A0430640AEEFD7000E3C6E3BAE23
:102F500016D0FF0E3814336EFF0E3914346EFF0E88
:102F60003A14356E7F0E3B14366E335034103510E4
:102F70003610D8A402D03EA002D0010E3C6E3C50C8
:102F8000D8B41FD0010E3E26000E3F22402241221F
:102F900041A017D03EC033F03FC034F040C035F000
:102FA00041C036F03634363235323432333233C003
:102FB0003EF034C03FF035C040F036C041F0424AE8
:102FC000432A43BE0DD0435003E14228D8A008D085
:102FD000000E3E6E000E3F6E800E406E7F0E20D0C3
:102FE00043BE05D043500EE14204D8B00BD0000ED2
:102FF0003E6E000E3F6E000E406E000E416E000EE3
:10300000376E0FD042C03DF0FF0E3E16FF0E3F164A
:103010007F0E4016000E41163DB0408ED8903D30D8
:10302000416E375041123EC02BF03FC02CF040C0E3
:103030002DF041C02EF012005450800B616E5450A0
:103040005424636E53BE63806350D8B40DD063289C
:10305000D8A408D0000E516E000E526E000E536EB2
:10306000000E546E538E06D0000E516E000E526E3E
:10307000000E536E000E546E5850800B626E6150FD
:103080006218D8A4618C58505824626E57BE628072
:103090006250D8B40DD06228D8A408D0000E556E66
:1030A000000E566E000E576E000E586E578E06D0EC
:1030B000000E556E000E566E000E576E000E586EC6
:1030C0006350625CD8B022D061AC02D0800E611A2D
:1030D00063C064F062C063F064C062F051C064F029
:1030E00055C051F064C055F052C064F056C052F063
:1030F00064C056F053C064F057C053F064C057F03A
:1031000054C064F058C054F064C058F0000E646EAF
:103110006350596E5A6A591E5A1E594A5A2A6250A9
:103120005B6E5C6A59505B265A505C225CBE2CD0A8
:103130005C5004E11A0E5B5CD8A026D051505210AE
:1031400053105410D8B402D0010E01D0000E646E9A
:10315000000E516E000E526E000E536E000E546E35
:1031600062C063F015D064A005D0D8906430010926
:10317000646E02D0D890643251B0648E54345432AC
:10318000533252325132632A6250635CD8A0EBD77B
:1031900061BC29D06350D8A409D0000E516E000E36
:1031A000526E000E536E000E546E12005550512692
:1031B00056505222575053225850542254A083D074
:1031C00064A006D0D890643264500109646E02D0C5
:1031D000D890643251B0648E5434543253325232E7
:1031E0005132632A70D05550515C56505258575046
:1031F00053585450800A596E5850800A5958D8B0C4
:1032000036D051C059F052C05AF053C05BF054C090
:103210005CF0591E5A1E5B1E5C1E592A000E5A2273
:103220005B225C22555059245D6E56505A205E6ECA
:1032300057505B205F6E58505C20606EFF0E5D241F
:10324000516EFF0E5E20526EFF0E5F20536EFF0E1A
:103250006020546E800E611A646C6450D8A40FD044
:10326000010E5126000E52225322542208D05550EE
:10327000515E5650525A5750535A5850545A515002
:10328000521053105410D8A41CD06450D8A419D094
:10329000000E516E000E526E000E536E000E546EF4
:1032A0001200D890513652365336543664BE51808F
:1032B00064A002D0D88001D0D89064366350D8A4DE
:1032C000630653AEEED7000E626E64AE0AD064C0E1
:1032D00059F07F0E5916D8A402D051A002D0010E89
:1032E000626E6250D8B420D0010E5126000E5222D8
:1032F0005322542254A018D051C059F052C05AF051
:1033000053C05BF054C05CF05C345C325B325A32C8
:10331000593259C051F05AC052F05BC053F05CC0F2
:1033200054F06328D8A4632A6328D8B403D0635028
:10333000D8A40DD0000E516E000E526E000E536ECA
:10334000000E546E6350D8A402D0000E616E63A0CC
:1033500002D0538E01D0539ED8906330546E61BE1C
:10336000548E51C051F052C052F053C053F054C06B
:1033700054F01200000E6F6E000E706E800E716EB3
:103380003F0E726E000E766E69C0D9FF6AC0DAFF1A
:10339000000EDE6E000EDE6E000EDE6E000EDD6EC6
:1033A00065C0D9FF66C0DAFFDF50736E73502D0A17
:1033B000D8A404D0654A662A010E766E65C0D9FF8E
:1033C00066C0DAFFDF50746E74502E0AD8B41FD076
:1033D0001E0AD8B41FD0010AD8B41CD0030AD8B42E
:1033E00019D0010AD8B416D0070AD8B413D0010AEC
:1033F000D8B410D0030AD8B40DD0010AD8B40AD07A
:103400000F0AD8B407D0010AD8B404D0E4D0654A72
:10341000662A51D0654A662A000E2F6E000E306E65
:10342000200E316E410E326E69C0D9FF6AC0DAFFDC
:10343000DECF2BF0DECF2CF0DECF2DF0DECF2EF066
:1034400074EC16F02BC051F02CC052F02DC053F08C
:103450002EC054F0D00E6B6EFF0E6C6E2FEEFFF090
:103460006550D9266650DA22DF506D6E6E6A6B5059
:103470006D266C506E226DC019F06EC01AF01B6A7A
:103480001C6A000E73EC1EF019C055F01AC056F0FD
:103490001BC057F01CC058F01CEC18F069C0D9FFD5
:1034A0006AC0DAFF51C0DEFF52C0DEFF53C0DEFF4C
:1034B00054C0DEFF83D765C0D9FF66C0DAFFDF5096
:1034C000756E7550300AD8B41BD0010AD8B418D024
:1034D000030AD8B415D0010AD8B412D0070AD8B458
:1034E0000FD0010AD8B40CD0030AD8B409D0010A0D
:1034F000D8B406D00F0AD8B403D0010AD8A46BD030
:10350000654A662A69C0D9FF6AC0DAFFDECF51F08A
:10351000DECF52F0DECF53F0DECF54F0D00E6B6E24
:10352000FF0E6C6E2FEEFFF06550D9266650DA2242
:10353000DF506D6E6E6A6B506D266C506E226DC0E2
:1035400019F06EC01AF01B6A1C6A000E73EC1EF0B4
:1035500019C02FF01AC030F01BC031F01CC032F07F
:10356000000E136E000E146E200E156E410E166EB8
:103570006FC00FF070C010F071C011F072C012F087
:103580001BEC1BF00FC06FF010C070F011C071F099
:1035900012C072F06FC02BF070C02CF071C02DF013
:1035A00072C02EF074EC16F02BC055F02CC056F003
:1035B0002DC057F02EC058F01CEC18F069C0D9FF90
:1035C0006AC0DAFF51C0DEFF52C0DEFF53C0DEFF2B
:1035D00054C0DEFF70D77650D8B422D069C0D9FF6E
:1035E0006AC0DAFFDECF2BF0DECF2CF0DECF2DF07D
:1035F000DECF2EF0000E2F6E000E306E800E316E7C
:10360000BF0E326E74EC16F069C0D9FF6AC0DAFFE3
:103610002BC0DEFF2CC0DEFF2DC0DEFF2EC0DEFF84
:103620006550671804E166506818D8B402D0010EDE
:103630001200000E12001250800B1B6E125012244A
:10364000266E11BE26802650D8B40DD02628D8A4C8
:1036500008D0000E0F6E000E106E000E116E000EE0
:10366000126E118E06D0000E0F6E000E106E000E40
:10367000116E000E126E1650800B1B1A1650162477
:10368000276E15BE27802750D8B40DD02728D8A480
:1036900008D0000E136E000E146E000E156E000E94
:1036A000166E158E06D0000E136E000E146E000EF0
:1036B000156E000E166E1350141015101610D8A4A7
:1036C00015D0000E0F6E000E106E000E116E000E63
:1036D000126E800E11127F0E12120FC00FF010C06A
:1036E00010F011C011F012C012F012002650D8A430
:1036F00011D0000E0F6E000E106E000E116E000E37
:10370000126E0FC00FF010C010F011C011F012C0F7
:1037100012F012002750176E186A171E181E174A4B
:10372000182A2650196E1A6A1750192618501A228C
:103730007F0E1924206E000E1A20216E0FC01CF07F
:1037400010C01DF011C01EF012C01FF0000E0F6E51
:10375000000E106E000E116E000E126E000E226E24
:10376000000E236E000E246E000E256E000E276ED6
:1037700028D02750D8B411D0D8901C361D361E360C
:103780001F36D8900F3610361136123625BE0F80F0
:10379000D890223623362436253613501C5C14501C
:1037A0001D5815501E5816501F58D8A009D0258CEA
:1037B00013501C5E14501D5A15501E5A16501F5A95
:1037C000272A190E2764D5D71C501D101E101F1054
:1037D000D8B411D022800FD0D8900F3610361136C1
:1037E000123625BE0F80D890223623362436253651
:1037F0002006D8A0210611AEEFD7000E276E25AE09
:1038000016D0FF0E2214176EFF0E2314186EFF0E33
:103810002414196E7F0E25141A6E175018101910E3
:103820001A10D8A402D00FA002D0010E276E275084
:10383000D8B41FD0010E0F26000E10221122122222
:1038400012A017D00FC017F010C018F011C019F057
:1038500012C01AF01A341A3219321832173217C03D
:103860000FF018C010F019C011F01AC012F0204A61
:10387000212A21BE10D0215003E12028D8A00BD04E
:10388000000E216E2068000E0F6E000E106E000EEE
:10389000116E000E126E21BE05D0215011E12004E0
:1038A000D8B00ED0000E216E000E206E000E0F6EEE
:1038B000000E106E000E116E000E126E000E1B6ECA
:1038C00020C026F026A002D0118E01D0119ED890E3
:1038D0002630126E1B5012120FC00FF010C010F0E5
:1038E00011C011F012C012F01200506E6D0E506433
:1038F000B5D0000E0A6E0A0E096E000E046E640E3C
:10390000036E50C001F0026A4BEC23F001C007F0D7
:1039100002C008F0C8EC22F0D89007360836D890DC
:1039200007360836240E0726000E0822350E072417
:10393000F66E100E0820F76EF86A000EF8220900E5
:10394000F5CF2FF00900F5CF30F00900F5CF31F0B9
:103950000A00F5CF32F0000E0A6E640E096E50C0F8
:1039600007F0086AC8EC22F0D89007360836D890DD
:1039700007360836480E0726000E0822350E0724A3
:10398000F66E100E0820F76EF86A000EF822090095
:10399000F5CF2BF00900F5CF2CF00900F5CF2DF075
:1039A0000A00F5CF2EF074EC16F02BC04CF02CC0B2
:1039B0004DF02DC04EF02EC04FF0000E046E0A0EDA
:1039C000036E50C001F0026A4BEC23F0D890013630
:1039D0000236D89001360236350E0124F66E100EEE
:1039E0000220F76EF86A000EF8220900F5CF2FF0DA
:1039F0000900F5CF30F00900F5CF31F00A00F5CF1E
:103A000032F04CC02BF04DC02CF04EC02DF04FC00A
:103A10002EF074EC16F02BC048F02CC049F02DC0ED
:103A20004AF02EC04BF048C02BF049C02CF04AC0E1
:103A30002DF04BC02EF0000E2F6E000E306E000EDB
:103A4000316E3F0E326E74EC16F02BC044F02CC079
:103A500045F02DC046F02EC047F012000A0E50640B
:103A600069D0000E046E0A0E036E50C001F0026AA7
:103A70004BEC23F0D89001360236D890013602364E
:103A8000350E0124F66E100E0220F76EF86A000E55
:103A9000F8220900F5CF2FF00900F5CF30F009002A
:103AA000F5CF31F00A00F5CF32F0000E0A6E0A0EA3
:103AB000096E50C007F0086AC8EC22F0D8900736AB
:103AC0000836D89007360836240E0726000E08223E
:103AD000350E0724F66E100E0820F76EF86A000EF9
:103AE000F8220900F5CF2BF00900F5CF2CF00900E2
:103AF000F5CF2DF00A00F5CF2EF074EC16F02BC0A8
:103B00004CF02CC04DF02DC04EF02EC04FF04CC0EC
:103B10002BF04DC02CF04EC02DF04FC02EF0000EFB
:103B20002F6E000E306E000E316E3F0E326E74EC52
:103B300016F08BD75050040D350EF324F66E100E90
:103B4000F420F76EF86A000EF8220900F5CF2BF08A
:103B50000900F5CF2CF00900F5CF2DF00A00F5CFC4
:103B60002EF0000E2F6E000E306E000E316E3F0EE6
:103B7000326E74EC16F02BC044F02CC045F02DC012
:103B800046F02EC047F01200696E6F0E016E000EF7
:103B9000026E2AEC24F00009D8A4A3D06B0E016EAB
:103BA000000E026E2AEC24F00009D8B48DD099D012
:103BB0006BC051F06CC052F06DC053F06EC054F049
:103BC0006FC055F070C056F071C057F072C058F019
:103BD0001CEC18F051C065F052C066F053C067F09D
:103BE00054C068F066EC24F012006FC027F070C07B
:103BF00028F071C029F072C02AF09BEC24F027C095
:103C000051F028C052F029C053F02AC054F06BC0C4
:103C100055F06CC056F06DC057F06EC058F01CECFB
:103C200018F051C065F052C066F053C067F054C040
:103C300068F066EC24F01200010E6A6E6F5070108E
:103C400071107210D8B421D06BC00FF06CC010F09E
:103C50006DC011F06EC012F06FC013F070C014F0A0
:103C600071C015F072C016F01BEC1BF00FC065F0B0
:103C700010C066F011C067F012C068F066EC24F066
:103C80000009D8A402D0000E6A6E6A5012006BC000
:103C90002BF06CC02CF06DC02DF06EC02EF06FC0FC
:103CA0002FF070C030F071C031F072C032F074EC9F
:103CB00016F02BC065F02CC066F02DC067F02EC04A
:103CC00068F066EC24F0120069502A0AD8B4DFD7F5
:103CD000010AD8B46DD7060AD8B487D7020AD8B477
:103CE000ABD7010E1200216E2150D8A41CAE1AD001
:103CF00019C01DF01AC01EF01BC01FF01CC020F020
:103D00001D1E1E1E1F1E201E1D2A000E1E221F22EB
:103D100020221DC023F01EC024F01FC025F020C0AB
:103D200026F008D019C023F01AC024F01BC025F0DB
:103D30001CC026F019501A101B101C10D8A409D052
:103D4000000E196E000E1A6E000E1B6E000E1C6E19
:103D50001200960E226E06D0222AD89026322532E4
:103D600024322332000E23141D6E000E24141E6E06
:103D7000000E25141F6EFE0E2614206E1D501E1000
:103D80001F102010D8B40DD0E7D7222A010E232609
:103D9000000E242225222622D890263225322432D3
:103DA0002332000E23141D6E000E24141E6E000E0E
:103DB00025141F6EFF0E2614206E1D501E101F109E
:103DC0002010D8B407D0E1D72206D8902336243665
:103DD0002536263625BE03D0020E2260F5D722B046
:103DE00008D0FF0E2316FF0E24167F0E2516FF0E99
:103DF0002616D890223222C01DF01E6A1F6A206A41
:103E00001DC020F01F6A1E6A1D6A1D5023121E501D
:103E100024121F502512205026122150D8A41CAE67
:103E200001D0268E23C019F024C01AF025C01BF043
:103E300026C01CF01200000E956E95CF83FF000E79
:103E4000966E96CF84FFC184C182C180F00E936EBE
:103E500093CF81FFB6EC23F011EC25F019EC25F09F
:103E6000A90E0001DB6F100E0001DC6FD40E716E25
:103E7000100E726EDBC073F0DCC074F06CEC08F0F6
:103E80007AEC21F019C0E1F01AC0E2F011EC25F053
:103E900019EC25F0000E076E000E08EC24F0E1C0CE
:103EA000D9FFE2C0DAFFDF50D8A405D0DBC0D7F0DD
:103EB000DCC0D8F004D0E1C0D7F0E2C0D8F0C90E21
:103EC000716E100E726ED7C073F0D8C074F06CECC7
:103ED00008F0010E076E000E08EC24F0E1C07BF044
:103EE000E2C07CF0DD0E7D6E000E7E6E81EC24F073
:103EF0000009D8B41DD0E1C0D9FFE2C0DAFFDF501D
:103F0000D8A405D0C10E0001D96F100E04D0B90E8F
:103F10000001D96F100E0001DA6FC90E716E100E1C
:103F2000726ED9C073F0DAC074F06CEC08F00ED089
:103F3000CF0E716E100E726EDDC073F0DEC074F0C5
:103F4000DFC075F0E0C076F06CEC08F0E1C0D9FF9E
:103F5000E2C0DAFFDF50D8B493D7000E076EE1C09D
:103F600001F0E2C002F049EC24F0015008EC24F02A
:103F700021EC25F029EC25F083D703C009F00A6A6B
:103F80000B6A0234093601E30A800950116E1150A0
:103F9000D8A409D0000E016E000E026E000E036E52
:103FA000000E046E120007C009F00A6A0B6A06349C
:103FB000093601E30A800950106E1050D8A409D0C8
:103FC000000E016E000E026E000E036E000E046EF7
:103FD0001200028EFF0E0116FF0E0216000E0316CF
:103FE000068EFF0E0516FF0E0616000E0716000EB3
:103FF0000C6E000E0D6E000E0E6E000E0F6E7F0E1C
:10400000115E1050980F115E180E106ED8900C367D
:104010000D360E360F360550015C0650025807501B
:104020000358D8A007D00550015E0650025A075029
:10403000035A0C80D890013602360336102EE6D78C
:1040400011AE16D01150800A970FD8B009D0000ECB
:10405000016E000E026E000E036E000E046E120062
:10406000D8900F320E320D320C32113EF9D715D0E6
:10407000170E11640FD0000E016E000E026E000EBE
:10408000036E000E046E1200D8900C360D360E36FC
:104090000F3611061150D8A4F7D70CC001F00DC08F
:1040A00002F00EC003F00FC004F012000334043419
:1040B0000E6E0E50D8A409D0000E016E000E026ED6
:1040C000000E036E000E046E1200073408340D6EED
:1040D0000D50D8A409D0000E016E000E026E000E25
:1040E000036E000E046E1200038EFF0E0116FF0E0B
:1040F0000216FF0E0316000E0416078EFF0E05169D
:10410000FF0E0616FF0E0716000E0816000E096EAB
:10411000000E0A6E000E0B6E000E0C6E7F0E0E5E11
:104120000D50A00F0E5E200E0D6ED89009360A3687
:104130000B360C360550015C0650025807500358E8
:1041400008500458D8A009D00550015E0650025A04
:104150000750035A0850045A0980D8900136023695
:10416000033604360D2EE1D70EAE16D00E50800A5F
:104170009F0FD8B009D0000E016E000E026E000E27
:10418000036E000E046E1200D8900C320B320A320D
:1041900009320E3EF9D715D01F0E0E640FD0000E57
:1041A000016E000E026E000E036E000E046E120011
:1041B000D89009360A360B360C360E060E50D8A4A7
:1041C000F7D709C001F00AC002F00BC003F00CC021
:1041D00004F01200000E65146D6E000E66146E6E13
:1041E000800E67146F6E7F0E6814706E6D506E10C7
:1041F0006F107010D8A408D0000E656E000E666EA9
:10420000000E676E000E686E000E69146D6E000E73
:104210006A146E6E800E6B146F6E7F0E6C14706E6F
:104220006D506E106F107010D8A408D0000E696E1B
:10423000000E6A6E000E6B6E000E6C6E68AE1DD0C6
:1042400065C06DF066C06EF067C06FF068C070F05A
:104250006D1E6E1E6F1E701E6D2A000E6E226F2266
:104260007022000E6D24656E000E6E20666E000ECC
:104270006F20676E800E7020686E6CAE1DD069C0B6
:104280006DF06AC06EF06BC06FF06CC070F06D1EA8
:104290006E1E6F1E701E6D2A000E6E226F2270221F
:1042A000000E6D24696E000E6E206A6E000E6F2087
:1042B0006B6E800E70206C6E000E651A000E661A12
:1042C000000E671A800E681A000E691A000E6A1A2C
:1042D000000E6B1A800E6C1A6950655C6A50665845
:1042E0006B5067586C506858D8B002D0D890120004
:1042F000D880120039EC25F0246E240E2418D8A49E
:104300000DD00001A2510001D8B4F4D70001A207DA
:104310006ED0A30E196E000E1A6E1200100E000160
:10432000A261E8D70001A2510001D8B432D0230E17
:104330002418D8A42ED0FF0E1B6EFF0E1C6E000199
:10434000A2511D6E1E6A1B501D261C501E22A30E5C
:104350001D24D96E000E1E20DA6E200EDE18D8B491
:1043600016D0FF0E1B6EFF0E1C6E0001A2511D6EBB
:104370001E6A1B501D261C501E22A30E1D24D96E22
:10438000000E1E20DA6E2E0EDE18D8A402D0000118
:10439000A207230E2418D8A41AD00001A251010D9F
:1043A000A30EF324D96E000EF420DA6E200EDE1870
:1043B000D8B404D0000E236E200E03D0000E236E5E
:1043C0002E0E226E22C020F023C021F003D024C084
:1043D00020F0216A0001A251010DA30EF324D96E31
:1043E000000EF420DA6E20C0DFFF0001A22B0001D6
:1043F000A251010DA30EF324D96E000EF420DA6E43
:10440000000EDF6E86D711341234186E1850D8A4FF
:1044100009D0000E0F6E000E106E000E116E000E11
:10442000126E12000FC013F010C014F011C015F07E
:1044300012C016F0200E05D0D89016321532143264
:104440001332E82EF9D71350176E118EFF0E0F1688
:10445000FF0E1016FF0E1116000E1216960E185EA5
:1044600018AE16D01850800A970FD8B009D0000E99
:104470000F6E000E106E000E116E000E126E120006
:10448000D8901232113210320F32183EF9D715D0AF
:104490001F0E18640FD0000E0F6E000E106E000E6F
:1044A000116E000E126E1200D8900F3610361136B3
:1044B000123618061850D8A4F7D71750D8B408D019
:1044C000121E111E101E0F6C000E1022112212223D
:1044D0000FC00FF010C010F011C011F012C012F098
:1044E0001200910EF66E100EF76E000EF86E20EEB2
:1044F00004F00F0E0900F5CFDEFFE806FBE2000E28
:10450000146E030E146401D041D014C001F0010EEA
:10451000026E012A02D0D8900236012EFCD702503A
:10452000FF0A816E290EE82EFED700D0000E156E10
:10453000030E156401D028D015C001F0800E026E64
:10454000000E036E012A03D0033403320232012E1F
:10455000FBD7025081140009D8A414D01450040DC4
:10456000040E016E000E026EF3500126F45002227A
:104570001550010DF3500124D96EF4500220DA6E6B
:10458000DF501200152AD4D7142ABBD7000E120010
:10459000000E0C6E0AAE06D0096C0A1ED8B00A2AAC
:1045A000010E0C6E08AE06D0076C081ED8B0082AA3
:1045B000010E0C1A000E0E6E000E0D6E09500A1040
:1045C000D8B41CD0010E0B6E04D0D89009360A3630
:1045D0000B2A0AAEFAD7D8900D360E360950075C72
:1045E0000A500858D8A005D00950075E0A50085A4A
:1045F0000D80D8900A3209320B2EEDD70C50D8B46A
:1046000004D00D6C0E1ED8B00E2A0DC007F00EC0DF
:1046100008F01200000E096E000E0A6E000E0B6EFE
:10462000000E0C6E0550061007100810D8B42AD0E2
:10463000010E0D6E06D0D8900536063607360836C0
:104640000D2A08AEF8D7D89009360A360B360C3644
:104650000550015C06500258075003580850045892
:10466000D8A009D00550015E0650025A0750035ADF
:104670000850045A0980D8900832073206320532B1
:104680000D2EE1D709C001F00AC002F00BC003F003
:104690000CC004F01200000E066E02AE06D0016CD3
:1046A000021ED8B0022A010E066E04AE04D0036CBE
:1046B000041ED8B0042A03500410D8B418D0010E38
:1046C000056E04D0D89003360436052A04AEFAD716
:1046D0000350015C04500258D8A004D00350015E7E
:1046E0000450025AD89004320332052EF1D70650F6
:1046F000D8B404D0016C021ED8B0022A01C001F067
:1047000002C002F012000550061007100810D8B4BD
:1047100024D0010E096E06D0D8900536063607362D
:104720000836092A08AEF8D70550015C0650025831
:104730000750035808500458D8A008D00550015E0F
:104740000650025A0750035A0850045AD8900832AB
:10475000073206320532092EE7D701C001F002C048
:1047600002F003C003F004C004F01200070E036E51
:104770007D0EE82EFED7032EFCD700F084948482B1
:10478000300E31EC25F0D00EE82EFED700F0300EC2
:1047900031EC25F0290EE82EFED700D0300E31EC9A
:1047A00025F0380E31EC25F0080E31EC25F0010E25
:1047B00031EC25F0530EE82EFED700F00F0E31EC51
:1047C00025F0060E31EC25F01200000E691A000EDD
:1047D0006A1A000E6B1A800E6C1A65C051F066C022
:1047E00052F067C053F068C054F069C055F06AC019
:1047F00056F06BC057F06CC058F01CEC18F051C06C
:1048000065F052C066F053C067F054C068F0120003
:10481000106EA10EF66E100EF76E000EF86E20EE02
:1048200008F0070E0900F5CFDEFFE806FBE2010EF7
:10483000076402D0010E076E0750020D080EF32424
:10484000D96E000EF420DA6EDF501024800931ECAE
:1048500025F012000001A051D8B419D00001A00722
:104860000001A051040D800EF324D96E000EF42037
:10487000DA6E01C0E1FF02C0E2FFDECFE6FFDECF6D
:10488000E6FFDECFE6FFDECFE6FF000E1200010EF0
:10489000120001C005F002C006F002D0054A062A47
:1048A00005C0D9FF06C0DAFFDF50D8A4F7D701C092
:1048B00003F002C004F0031E041E034A042A05503C
:1048C0000324016E06500420026E1200080E00013F
:1048D000A06115D00001A051040D800EF324D96E03
:1048E000000EF420DA6E65C0DEFF66C0DEFF67C032
:1048F000DEFF68C0DEFF0001A02B000E1200010EDB
:10490000120046EC25F0010E7F6E7BC077F07CC074
:1049100078F09DEC11F00009D8A40BD07DC001F017
:104920007EC002F02AEC24F00009D8A402D0000EC8
:104930007F6E7F5012002750281029102A10D8B4FB
:1049400008D0000E271A000E281A000E291A800E11
:104950002A1A27C027F028C028F029C029F02AC029
:104960002AF0120071EC22F0176E1750D8B403D061
:1049700017C0A1F00CD00001A1510001D8B407D09C
:10498000A1C016F0000E0001A16F16501200000E1B
:1049900012009C0EF66E4A0EF76E000EF86E0900BD
:1049A000F5CFE3F00900F5CFE4F000EE80F0340E2F
:1049B000EE6AE806FDE100011BEF1FF00150030263
:1049C000F3CF05F0F4CF06F001500402F3500626B1
:1049D00002500302F350062605C001F006C002F0A3
:1049E0001200036E000E026E3A0E036005D02F0E09
:1049F000036402D0010E026E02C001F00130120009
:104A00007D0EE82EFED784927D0EE82EFED784829E
:104A10001200026E02504AEC25F0848400EC25F06E
:104A200012000001E4930001E451080931EC25F083
:104A300012000001E4910001E451080931EC25F075
:104A400012000001E4830001E451080931EC25F073
:104A500012000001E4810001E451080931EC25F065
:104A60001200026E02504AEC25F0849400EC25F00E
:104A70001200B2EC24F0186E1850D8B4FAD71850BF
:104A80001200036E035009EC25F01200000E000125
:0E4A9000A06F1200016E01C083FF120002072A
:020000040030CA
:0E000000FF06181EFF8180FF0FC00FE00F40AB
:00000001FF
