:0400000088EF08F08D
:10100000004865792050494353696D2E6A73202149
:10101000004C69666520697320676F6F64203A2908
:101020000000A60EE82EFED700D084948482300EF5
:1010300080EC08F0140EE82EFED700D0300E80ECC5
:1010400008F0040EE82EFED7300E80EC08F0380EC3
:1010500080EC08F0080E80EC08F0010E80EC08F03F
:10106000080EE82EFED700F00F0E80EC08F0060EFA
:1010700080EC08F01200000E956E95CF83FF000EF5
:10108000846E010E966E11EC08F0800E80EC08F074
:10109000010E036E100E046E58EC08F0C00E80ECCA
:1010A00008F0110E036E100E046E58EC08F0FFD716
:1010B0000AD003C0F6FF04C0F7FF0800F55078EC33
:1010C00008F0034A042A03C0F6FF04C0F7FF080033
:1010D000F5500009D8B41200ECD70C0EE82EFED75C
:1010E00000F084920C0EE82EFED700F084821200ED
:1010F000026E02508FEC08F084846DEC08F0120050
:10110000026E02508FEC08F084946DEC08F012002F
:10111000000EF86E100EF76E00013BEF08F0016E46
:0611200001C083FF120074
:020000040030CA
:0E000000FF06181EFF8180FF0FC00FE00F40AB
:00000001FF
