:0400000074EF0AF09F
:101000000001000A006400E803102701001000003E
:10101000010010000040001400540030313233341D
:101020003536373839616263646566002534643A61
:1010300030782530347800000F0E1A6E000E1B6ECB
:1010400074D1250E2218D8B404D02250C3EC0AF073
:101050006CD1000E216E000E206E000E1F6E03D0AC
:101060001F840D4A0E2A0DC0F6FF0EC0F7FF0800C0
:10107000F550300AD8B4F4D70DC0F6FF0EC0F7FF14
:101080000800F55085EC0AF0D8A035D0000E216E8E
:10109000000E206E20C001F021C002F0000E046E90
:1010A0000A0E036E61EC0AF001C020F002C021F0CC
:1010B000D00E156EFF0E166E0DC0F6FF0EC0F7FFB8
:1010C0000800F550176E186A15501726165018228A
:1010D00017502026185021220D4A0E2A0DC0F6FF67
:1010E0000EC0F7FF0800F55085EC0AF0D8A003D039
:1010F000D1D71F8E17D00DC0F6FF0EC0F7FF0D4AD7
:101100000E2A0800F5CF22F02250000AD8B41200AF
:10111000640AD8B407D00D0AD8B404D0110AD8B4E0
:10112000E8D703D11FBE15D01AC0D9FF1BC0DAFF04
:10113000DECF1DF0DDCF1EF0020E1A26000E1B22A0
:101140001EAE44D0030E1F121D6C1E1ED8B01E2AE8
:101150003DD01AC0D9FF1BC0DAFFDECF1DF0DDCFB6
:101160001EF0020E1A26000E1B2230D0010E226E37
:10117000050E2218D8B432D02250020D010EF324ED
:10118000F66E100EF420F76E0900F5501D5C090094
:10119000F5501E58D8A022D0222AEAD7010E226E7E
:1011A000040E2218D8B41AD02250020D0B0EF324CC
:1011B000F66E100EF420F76E0900F5501D5C090064
:1011C000F5501E58D8A00AD0222AEAD71F50800B0B
:1011D000000AD8B4CBD7800AD8B4E0D72050211069
:1011E000D8B409D01FC015F0030E1516D8B403D01B
:1011F0002006D8A02106800E22BE7F0E156E20503C
:10120000225C2150800A1558D8B007D02250205EA9
:10121000000E22BEFF0E215A04D0000E216E000ED9
:10122000206E1FA414D01FC015F0030E1516D8B4DD
:1012300003D02D0EC3EC0AF020502110D8B41ED0DC
:10124000300EC3EC0AF02006D8A02106F5D72050B6
:101250002110D8B40AD0200EC3EC0AF02006D8A082
:10126000210620502110D8A4F6D71FC015F0030E78
:101270001516D8B403D02D0EC3EC0AF022C01CF012
:1012800050D01C50020D010EF324F66E100EF42007
:10129000F76E0900F5CF03F00A00F5CF04F01DC08A
:1012A00001F01EC002F017EC0AF001C008F002C005
:1012B00009F0000E0B6E0A0E0A6E40EC0AF00850A0
:1012C000300F226E2BD01DC001F01EC002F01C504A
:1012D000020D0B0EF324F66E100EF420F76E0900CB
:1012E000F5CF03F00A00F5CF04F017EC0AF0015037
:1012F0000F0B196E1950010D1B0EF324F66E100E14
:10130000F420F76E0800F5CF22F008D01F50800BB4
:10131000000AD8B4B6D7800AD8B4D5D72250C3ECC7
:101320000AF01C061C28D8A4F1D70DC0F6FF0EC089
:10133000F7FF0D4A0E2A0800F5CF22F02250D8B44C
:1013400012007FD6000E276E000E286E000E296E4A
:10135000000E2A6E000E956E95CF83FF000E846EF0
:10136000010E966EC296C29AC284C288C280EDEC0B
:1013700009F0B7EC0AF0BDEC0AF0C282C2B2FED7A7
:10138000A7EC0AF02C0E0D6E100E0E6EC3CF23F0DC
:10139000060E246ED8902332242EFCD72350C4CFBF
:1013A00025F0266AD89025362636D890253626365A
:1013B00025100F6E2650106E010E2726000E2822D3
:1013C00029222A2227C011F028C012F029C013F0C8
:1013D0002AC014F01CEC08F0D0D7A60EE82EFED7D9
:1013E00000D084948482300EAFEC0AF0140EE82E04
:1013F000FED700D0300EAFEC0AF0040EE82EFED778
:10140000300EAFEC0AF0380EAFEC0AF0080EAFEC7D
:101410000AF0010EAFEC0AF0080EE82EFED700F03D
:101420000F0EAFEC0AF0060EAFEC0AF01200000E41
:10143000066E000E056E03500410D8B41CD0010EC9
:10144000076E04D0D89003360436072A04AEFAD7C4
:10145000D890053606360350015C04500258D8A0D7
:1014600005D00350015E0450025A0580D890043222
:101470000332072EEDD705C001F006C002F01200BE
:101480000A500B10D8B418D0010E0C6E04D0D890AE
:101490000A360B360C2A0BAEFAD70A50085C0B50F2
:1014A0000958D8A004D00A50085E0B50095AD890A9
:1014B0000B320A320C2EF1D708C008F009C009F02F
:1014C000120001500302F3CF05F0F4CF06F00150F3
:1014D0000402F350062602500302F350062605C00C
:1014E00001F006C002F01200980EF66E150EF76EAF
:1014F000000EF86E0900F5CF2BF00900F5CF2CF0A7
:10150000000EF86E0001A2EF09F0036E000E026EED
:101510003A0E036005D02F0E036402D0010E026E56
:1015200002C001F0013012000C0EE82EFED700F0D0
:1015300084920C0EE82EFED700F084821200026E18
:101540000250C8EC0AF0848494EC0AF01200020EF7
:10155000AFEC0AF0080EE82EFED700F01200026E83
:101560000250C8EC0AF0849494EC0AF012002B921A
:101570002B500809AFEC0AF012002B902B500809F1
:10158000AFEC0AF01200036E03509FEC0AF0120059
:0A159000016E01C083FF1200070284
:020000040030CA
:0E000000FF06181EFF8180FF0FC00FE00F40AB
:00000001FF
